{
  "_format": "hh-sol-artifact-1",
  "contractName": "OpacusCore",
  "sourceName": "contracts/OpacusCore.sol",
  "abi": [
    {
      "inputs": [],
      "stateMutability": "nonpayable",
      "type": "constructor"
    },
    {
      "inputs": [
        {
          "internalType": "address",
          "name": "owner",
          "type": "address"
        }
      ],
      "name": "OwnableInvalidOwner",
      "type": "error"
    },
    {
      "inputs": [
        {
          "internalType": "address",
          "name": "account",
          "type": "address"
        }
      ],
      "name": "OwnableUnauthorizedAccount",
      "type": "error"
    },
    {
      "anonymous": false,
      "inputs": [
        {
          "indexed": true,
          "internalType": "bytes32",
          "name": "agentId",
          "type": "bytes32"
        },
        {
          "indexed": true,
          "internalType": "bytes32",
          "name": "dacId",
          "type": "bytes32"
        }
      ],
      "name": "AgentAssignedToDAC",
      "type": "event"
    },
    {
      "anonymous": false,
      "inputs": [
        {
          "indexed": true,
          "internalType": "bytes32",
          "name": "agentId",
          "type": "bytes32"
        },
        {
          "indexed": true,
          "internalType": "bytes32",
          "name": "dacId",
          "type": "bytes32"
        }
      ],
      "name": "AgentRemovedFromDAC",
      "type": "event"
    },
    {
      "anonymous": false,
      "inputs": [
        {
          "indexed": false,
          "internalType": "address",
          "name": "dacRegistry",
          "type": "address"
        },
        {
          "indexed": false,
          "internalType": "address",
          "name": "agentRegistry",
          "type": "address"
        },
        {
          "indexed": false,
          "internalType": "address",
          "name": "dataStream",
          "type": "address"
        },
        {
          "indexed": false,
          "internalType": "address",
          "name": "escrow",
          "type": "address"
        }
      ],
      "name": "ContractsInitialized",
      "type": "event"
    },
    {
      "anonymous": false,
      "inputs": [
        {
          "indexed": true,
          "internalType": "address",
          "name": "previousOwner",
          "type": "address"
        },
        {
          "indexed": true,
          "internalType": "address",
          "name": "newOwner",
          "type": "address"
        }
      ],
      "name": "OwnershipTransferred",
      "type": "event"
    },
    {
      "inputs": [
        {
          "internalType": "bytes32",
          "name": "",
          "type": "bytes32"
        }
      ],
      "name": "agentDAC",
      "outputs": [
        {
          "internalType": "bytes32",
          "name": "",
          "type": "bytes32"
        }
      ],
      "stateMutability": "view",
      "type": "function"
    },
    {
      "inputs": [],
      "name": "agentRegistry",
      "outputs": [
        {
          "internalType": "contract AgentRegistry",
          "name": "",
          "type": "address"
        }
      ],
      "stateMutability": "view",
      "type": "function"
    },
    {
      "inputs": [
        {
          "internalType": "bytes32",
          "name": "agentId",
          "type": "bytes32"
        },
        {
          "internalType": "bytes32",
          "name": "dacId",
          "type": "bytes32"
        }
      ],
      "name": "assignAgentToDAC",
      "outputs": [],
      "stateMutability": "nonpayable",
      "type": "function"
    },
    {
      "inputs": [
        {
          "internalType": "bytes32",
          "name": "",
          "type": "bytes32"
        },
        {
          "internalType": "uint256",
          "name": "",
          "type": "uint256"
        }
      ],
      "name": "dacAgents",
      "outputs": [
        {
          "internalType": "bytes32",
          "name": "",
          "type": "bytes32"
        }
      ],
      "stateMutability": "view",
      "type": "function"
    },
    {
      "inputs": [],
      "name": "dacRegistry",
      "outputs": [
        {
          "internalType": "contract DACRegistry",
          "name": "",
          "type": "address"
        }
      ],
      "stateMutability": "view",
      "type": "function"
    },
    {
      "inputs": [],
      "name": "dataStream",
      "outputs": [
        {
          "internalType": "contract DataStream",
          "name": "",
          "type": "address"
        }
      ],
      "stateMutability": "view",
      "type": "function"
    },
    {
      "inputs": [],
      "name": "escrow",
      "outputs": [
        {
          "internalType": "contract MsgEscrow",
          "name": "",
          "type": "address"
        }
      ],
      "stateMutability": "view",
      "type": "function"
    },
    {
      "inputs": [
        {
          "internalType": "bytes32",
          "name": "agentId",
          "type": "bytes32"
        }
      ],
      "name": "getAgentDAC",
      "outputs": [
        {
          "internalType": "bytes32",
          "name": "",
          "type": "bytes32"
        }
      ],
      "stateMutability": "view",
      "type": "function"
    },
    {
      "inputs": [
        {
          "internalType": "bytes32",
          "name": "dacId",
          "type": "bytes32"
        }
      ],
      "name": "getDACAgents",
      "outputs": [
        {
          "internalType": "bytes32[]",
          "name": "",
          "type": "bytes32[]"
        }
      ],
      "stateMutability": "view",
      "type": "function"
    },
    {
      "inputs": [
        {
          "internalType": "bytes32",
          "name": "agentId",
          "type": "bytes32"
        }
      ],
      "name": "getFullAgentInfo",
      "outputs": [
        {
          "components": [
            {
              "internalType": "bytes32",
              "name": "id",
              "type": "bytes32"
            },
            {
              "internalType": "bytes32",
              "name": "edPubKeyHash",
              "type": "bytes32"
            },
            {
              "internalType": "bytes32",
              "name": "xPubKeyHash",
              "type": "bytes32"
            },
            {
              "internalType": "address",
              "name": "owner",
              "type": "address"
            },
            {
              "internalType": "string",
              "name": "metadataURI",
              "type": "string"
            },
            {
              "internalType": "uint256",
              "name": "registered",
              "type": "uint256"
            },
            {
              "internalType": "uint256",
              "name": "lastKeyRotation",
              "type": "uint256"
            },
            {
              "internalType": "bool",
              "name": "active",
              "type": "bool"
            },
            {
              "internalType": "uint256",
              "name": "reputation",
              "type": "uint256"
            },
            {
              "internalType": "uint256",
              "name": "stake",
              "type": "uint256"
            }
          ],
          "internalType": "struct AgentRegistry.Agent",
          "name": "agent",
          "type": "tuple"
        },
        {
          "internalType": "bytes32",
          "name": "dacId",
          "type": "bytes32"
        },
        {
          "components": [
            {
              "internalType": "bytes32",
              "name": "id",
              "type": "bytes32"
            },
            {
              "internalType": "address",
              "name": "owner",
              "type": "address"
            },
            {
              "internalType": "string",
              "name": "metadataURI",
              "type": "string"
            },
            {
              "internalType": "uint256",
              "name": "created",
              "type": "uint256"
            },
            {
              "internalType": "uint256",
              "name": "updated",
              "type": "uint256"
            },
            {
              "internalType": "bool",
              "name": "active",
              "type": "bool"
            },
            {
              "internalType": "uint256",
              "name": "stake",
              "type": "uint256"
            }
          ],
          "internalType": "struct DACRegistry.DAC",
          "name": "dac",
          "type": "tuple"
        }
      ],
      "stateMutability": "view",
      "type": "function"
    },
    {
      "inputs": [
        {
          "internalType": "address",
          "name": "_dacRegistry",
          "type": "address"
        },
        {
          "internalType": "address",
          "name": "_agentRegistry",
          "type": "address"
        },
        {
          "internalType": "address",
          "name": "_dataStream",
          "type": "address"
        },
        {
          "internalType": "address",
          "name": "_escrow",
          "type": "address"
        }
      ],
      "name": "initialize",
      "outputs": [],
      "stateMutability": "nonpayable",
      "type": "function"
    },
    {
      "inputs": [],
      "name": "owner",
      "outputs": [
        {
          "internalType": "address",
          "name": "",
          "type": "address"
        }
      ],
      "stateMutability": "view",
      "type": "function"
    },
    {
      "inputs": [
        {
          "internalType": "bytes32",
          "name": "agentId",
          "type": "bytes32"
        },
        {
          "internalType": "bytes32",
          "name": "dacId",
          "type": "bytes32"
        }
      ],
      "name": "removeAgentFromDAC",
      "outputs": [],
      "stateMutability": "nonpayable",
      "type": "function"
    },
    {
      "inputs": [],
      "name": "renounceOwnership",
      "outputs": [],
      "stateMutability": "nonpayable",
      "type": "function"
    },
    {
      "inputs": [
        {
          "internalType": "address",
          "name": "newOwner",
          "type": "address"
        }
      ],
      "name": "transferOwnership",
      "outputs": [],
      "stateMutability": "nonpayable",
      "type": "function"
    }
  ],
  "bytecode": "0x608060405234801561001057600080fd5b50338061003757604051631e4fbdf760e01b81526000600482015260240160405180910390fd5b61004081610046565b50610096565b600080546001600160a01b038381166001600160a01b0319831681178455604051919092169283917f8be0079c531659141344cd1fd0a4f28419497f9722a3daafe3b4186f6b6457e09190a35050565b61103d806100a56000396000f3fe608060405234801561001057600080fd5b50600436106100f55760003560e01c8063ce99dc5f11610097578063e960403e11610066578063e960403e14610205578063e9db2f3214610225578063f2fde38b14610247578063f8c8765e1461025a57600080fd5b8063ce99dc5f146101ac578063cedf4a1d146101bf578063e2fdcc17146101df578063e7383c96146101f257600080fd5b80637ed4286f116100d35780637ed4286f146101625780638da5cb5b14610175578063a09f19db14610186578063b13169121461019957600080fd5b80630d1cfcae146100fa5780630e00f53e1461012a578063715018a614610158575b600080fd5b60025461010d906001600160a01b031681565b6040516001600160a01b0390911681526020015b60405180910390f35b61014a610138366004610a70565b60066020526000908152604090205481565b604051908152602001610121565b61016061026d565b005b60035461010d906001600160a01b031681565b6000546001600160a01b031661010d565b60015461010d906001600160a01b031681565b61014a6101a7366004610a89565b610281565b6101606101ba366004610a89565b6102b2565b6101d26101cd366004610a70565b61050e565b6040516101219190610aab565b60045461010d906001600160a01b031681565b610160610200366004610a89565b610570565b61014a610213366004610a70565b60009081526006602052604090205490565b610238610233366004610a70565b610769565b60405161012193929190610ba7565b610160610255366004610c7e565b6108f8565b610160610268366004610ca2565b610936565b6102756109e6565b61027f6000610a13565b565b6005602052816000526040600020818154811061029d57600080fd5b90600052602060002001600091509150505481565b60025460405163a6c2af0160e01b8152600481018490526000916001600160a01b03169063a6c2af0190602401600060405180830381865afa1580156102fc573d6000803e3d6000fd5b505050506040513d6000823e601f3d908101601f191682016040526103249190810190610dff565b60015460405163101d439760e31b8152600481018590529192506000916001600160a01b03909116906380ea1cb890602401600060405180830381865afa158015610373573d6000803e3d6000fd5b505050506040513d6000823e601f3d908101601f1916820160405261039b9190810190610ed9565b60608301519091506001600160a01b03163314806103c5575060208101516001600160a01b031633145b6104075760405162461bcd60e51b815260206004820152600e60248201526d139bdd08185d5d1a1bdc9a5e995960921b60448201526064015b60405180910390fd5b6000838152600560205260408120905b81548110156104cb578582828154811061043357610433610f93565b9060005260206000200154036104b9578154829061045390600190610fbf565b8154811061046357610463610f93565b906000526020600020015482828154811061048057610480610f93565b90600052602060002001819055508180548061049e5761049e610fd8565b600190038181906000526020600020016000905590556104cb565b806104c381610fee565b915050610417565b5060008581526006602052604080822082905551859187917fe0e7dbdd26ab49a52bf63d134f8c2931b0d7bb9c0e5a30ed547ec0a68e0be2c19190a35050505050565b60008181526005602090815260409182902080548351818402810184019094528084526060939283018282801561056457602002820191906000526020600020905b815481526020019060010190808311610550575b50505050509050919050565b60025460405163a6c2af0160e01b8152600481018490526000916001600160a01b03169063a6c2af0190602401600060405180830381865afa1580156105ba573d6000803e3d6000fd5b505050506040513d6000823e601f3d908101601f191682016040526105e29190810190610dff565b60015460405163101d439760e31b8152600481018590529192506000916001600160a01b03909116906380ea1cb890602401600060405180830381865afa158015610631573d6000803e3d6000fd5b505050506040513d6000823e601f3d908101601f191682016040526106599190810190610ed9565b60608301519091506001600160a01b0316331480610683575060208101516001600160a01b031633145b6106c05760405162461bcd60e51b815260206004820152600e60248201526d139bdd08185d5d1a1bdc9a5e995960921b60448201526064016103fe565b8160e0015180156106d257508060a001515b6107095760405162461bcd60e51b8152602060048201526008602482015267496e61637469766560c01b60448201526064016103fe565b6000838152600560209081526040808320805460018101825590845282842001879055868352600690915280822085905551849186917f8e601025e6517a07b814c7e103a1a15da8326aa929373d7d0406d512ae7341af9190a350505050565b60408051610140810182526000808252602082018190529181018290526060808201839052608082015260a0810182905260c0810182905260e0810182905261010081018290526101208101919091526040805160e08101825260008082526020820181905260609282018390529181018290526080810182905260a0810182905260c0810182905260025460405163a6c2af0160e01b8152600481018690526001600160a01b039091169063a6c2af0190602401600060405180830381865afa15801561083b573d6000803e3d6000fd5b505050506040513d6000823e601f3d908101601f191682016040526108639190810190610dff565b600085815260066020526040902054909350915081156108f15760015460405163101d439760e31b8152600481018490526001600160a01b03909116906380ea1cb890602401600060405180830381865afa1580156108c6573d6000803e3d6000fd5b505050506040513d6000823e601f3d908101601f191682016040526108ee9190810190610ed9565b90505b9193909250565b6109006109e6565b6001600160a01b03811661092a57604051631e4fbdf760e01b8152600060048201526024016103fe565b61093381610a13565b50565b61093e6109e6565b600180546001600160a01b0386811673ffffffffffffffffffffffffffffffffffffffff1992831681179093556002805487831690841681179091556003805487841690851681179091556004805493871693909416831790935560408051948552602085019190915283019190915260608201527f2342d2a46d980e1b4e7571e23ad8c97dc6a4566ca73495d4c871b1c46d4360a29060800160405180910390a150505050565b6000546001600160a01b0316331461027f5760405163118cdaa760e01b81523360048201526024016103fe565b600080546001600160a01b0383811673ffffffffffffffffffffffffffffffffffffffff19831681178455604051919092169283917f8be0079c531659141344cd1fd0a4f28419497f9722a3daafe3b4186f6b6457e09190a35050565b600060208284031215610a8257600080fd5b5035919050565b60008060408385031215610a9c57600080fd5b50508035926020909101359150565b6020808252825182820181905260009190848201906040850190845b81811015610ae357835183529284019291840191600101610ac7565b50909695505050505050565b60005b83811015610b0a578181015183820152602001610af2565b50506000910152565b60008151808452610b2b816020860160208601610aef565b601f01601f19169290920160200192915050565b805182526001600160a01b0360208201511660208301526000604082015160e06040850152610b7160e0850182610b13565b9050606083015160608501526080830151608085015260a0830151151560a085015260c083015160c08501528091505092915050565b606081528351606082015260208401516080820152604084015160a082015260006060850151610be260c08401826001600160a01b03169052565b5060808501516101408060e0850152610bff6101a0850183610b13565b915060a0870151610100818187015260c08901519150610120828188015260e08a01519250610c318488018415159052565b908901516101608701528801516101808601525050602083018590528281036040840152610c5f8185610b3f565b9695505050505050565b6001600160a01b038116811461093357600080fd5b600060208284031215610c9057600080fd5b8135610c9b81610c69565b9392505050565b60008060008060808587031215610cb857600080fd5b8435610cc381610c69565b93506020850135610cd381610c69565b92506040850135610ce381610c69565b91506060850135610cf381610c69565b939692955090935050565b634e487b7160e01b600052604160045260246000fd5b604051610140810167ffffffffffffffff81118282101715610d3857610d38610cfe565b60405290565b60405160e0810167ffffffffffffffff81118282101715610d3857610d38610cfe565b8051610d6c81610c69565b919050565b600082601f830112610d8257600080fd5b815167ffffffffffffffff80821115610d9d57610d9d610cfe565b604051601f8301601f19908116603f01168101908282118183101715610dc557610dc5610cfe565b81604052838152866020858801011115610dde57600080fd5b610c5f846020830160208901610aef565b80518015158114610d6c57600080fd5b600060208284031215610e1157600080fd5b815167ffffffffffffffff80821115610e2957600080fd5b908301906101408286031215610e3e57600080fd5b610e46610d14565b825181526020830151602082015260408301516040820152610e6a60608401610d61565b6060820152608083015182811115610e8157600080fd5b610e8d87828601610d71565b60808301525060a083015160a082015260c083015160c0820152610eb360e08401610def565b60e082015261010083810151908201526101209283015192810192909252509392505050565b600060208284031215610eeb57600080fd5b815167ffffffffffffffff80821115610f0357600080fd5b9083019060e08286031215610f1757600080fd5b610f1f610d3e565b82518152610f2f60208401610d61565b6020820152604083015182811115610f4657600080fd5b610f5287828601610d71565b6040830152506060830151606082015260808301516080820152610f7860a08401610def565b60a082015260c083015160c082015280935050505092915050565b634e487b7160e01b600052603260045260246000fd5b634e487b7160e01b600052601160045260246000fd5b81810381811115610fd257610fd2610fa9565b92915050565b634e487b7160e01b600052603160045260246000fd5b60006001820161100057611000610fa9565b506001019056fea2646970667358221220409725a0ba97c18fb362c314102a5d3ed470cb599bee2d197492a4e3845234d264736f6c63430008140033",
  "linkReferences": {},
  "deployedLinkReferences": {}
}