{
  "_format": "hh-sol-artifact-1",
  "contractName": "MsgEscrow",
  "sourceName": "contracts/MsgEscrow.sol",
  "abi": [
    {
      "inputs": [
        {
          "internalType": "address",
          "name": "_paymentToken",
          "type": "address"
        },
        {
          "internalType": "address",
          "name": "_protocolTreasury",
          "type": "address"
        }
      ],
      "stateMutability": "nonpayable",
      "type": "constructor"
    },
    {
      "inputs": [
        {
          "internalType": "address",
          "name": "owner",
          "type": "address"
        }
      ],
      "name": "OwnableInvalidOwner",
      "type": "error"
    },
    {
      "inputs": [
        {
          "internalType": "address",
          "name": "account",
          "type": "address"
        }
      ],
      "name": "OwnableUnauthorizedAccount",
      "type": "error"
    },
    {
      "inputs": [],
      "name": "ReentrancyGuardReentrantCall",
      "type": "error"
    },
    {
      "anonymous": false,
      "inputs": [
        {
          "indexed": true,
          "internalType": "bytes32",
          "name": "lockId",
          "type": "bytes32"
        }
      ],
      "name": "Cancelled",
      "type": "event"
    },
    {
      "anonymous": false,
      "inputs": [
        {
          "indexed": true,
          "internalType": "bytes32",
          "name": "lockId",
          "type": "bytes32"
        },
        {
          "indexed": false,
          "internalType": "address",
          "name": "payer",
          "type": "address"
        },
        {
          "indexed": false,
          "internalType": "address",
          "name": "payee",
          "type": "address"
        },
        {
          "indexed": false,
          "internalType": "uint256",
          "name": "amount",
          "type": "uint256"
        }
      ],
      "name": "Locked",
      "type": "event"
    },
    {
      "anonymous": false,
      "inputs": [
        {
          "indexed": true,
          "internalType": "address",
          "name": "previousOwner",
          "type": "address"
        },
        {
          "indexed": true,
          "internalType": "address",
          "name": "newOwner",
          "type": "address"
        }
      ],
      "name": "OwnershipTransferred",
      "type": "event"
    },
    {
      "anonymous": false,
      "inputs": [
        {
          "indexed": false,
          "internalType": "address",
          "name": "relayer",
          "type": "address"
        }
      ],
      "name": "RelayerAdded",
      "type": "event"
    },
    {
      "anonymous": false,
      "inputs": [
        {
          "indexed": false,
          "internalType": "address",
          "name": "relayer",
          "type": "address"
        }
      ],
      "name": "RelayerRemoved",
      "type": "event"
    },
    {
      "anonymous": false,
      "inputs": [
        {
          "indexed": true,
          "internalType": "bytes32",
          "name": "lockId",
          "type": "bytes32"
        },
        {
          "indexed": false,
          "internalType": "address",
          "name": "relayer",
          "type": "address"
        }
      ],
      "name": "Released",
      "type": "event"
    },
    {
      "inputs": [],
      "name": "addRelayer",
      "outputs": [],
      "stateMutability": "payable",
      "type": "function"
    },
    {
      "inputs": [
        {
          "internalType": "address",
          "name": "",
          "type": "address"
        }
      ],
      "name": "authorizedRelayers",
      "outputs": [
        {
          "internalType": "bool",
          "name": "",
          "type": "bool"
        }
      ],
      "stateMutability": "view",
      "type": "function"
    },
    {
      "inputs": [
        {
          "internalType": "bytes32",
          "name": "lockId",
          "type": "bytes32"
        }
      ],
      "name": "cancel",
      "outputs": [
        {
          "internalType": "bool",
          "name": "",
          "type": "bool"
        }
      ],
      "stateMutability": "nonpayable",
      "type": "function"
    },
    {
      "inputs": [],
      "name": "defaultExpiry",
      "outputs": [
        {
          "internalType": "uint256",
          "name": "",
          "type": "uint256"
        }
      ],
      "stateMutability": "view",
      "type": "function"
    },
    {
      "inputs": [
        {
          "internalType": "bytes32",
          "name": "lockId",
          "type": "bytes32"
        }
      ],
      "name": "getLock",
      "outputs": [
        {
          "components": [
            {
              "internalType": "bytes32",
              "name": "id",
              "type": "bytes32"
            },
            {
              "internalType": "address",
              "name": "payer",
              "type": "address"
            },
            {
              "internalType": "address",
              "name": "payee",
              "type": "address"
            },
            {
              "internalType": "uint256",
              "name": "amount",
              "type": "uint256"
            },
            {
              "internalType": "bytes32",
              "name": "messageHash",
              "type": "bytes32"
            },
            {
              "internalType": "uint256",
              "name": "created",
              "type": "uint256"
            },
            {
              "internalType": "uint256",
              "name": "expiry",
              "type": "uint256"
            },
            {
              "internalType": "bool",
              "name": "released",
              "type": "bool"
            },
            {
              "internalType": "bool",
              "name": "cancelled",
              "type": "bool"
            }
          ],
          "internalType": "struct MsgEscrow.Lock",
          "name": "",
          "type": "tuple"
        }
      ],
      "stateMutability": "view",
      "type": "function"
    },
    {
      "inputs": [
        {
          "internalType": "bytes32",
          "name": "lockId",
          "type": "bytes32"
        },
        {
          "internalType": "address",
          "name": "payee",
          "type": "address"
        },
        {
          "internalType": "uint256",
          "name": "amount",
          "type": "uint256"
        },
        {
          "internalType": "bytes32",
          "name": "messageHash",
          "type": "bytes32"
        }
      ],
      "name": "lock",
      "outputs": [
        {
          "internalType": "bool",
          "name": "",
          "type": "bool"
        }
      ],
      "stateMutability": "nonpayable",
      "type": "function"
    },
    {
      "inputs": [
        {
          "internalType": "bytes32",
          "name": "",
          "type": "bytes32"
        }
      ],
      "name": "locks",
      "outputs": [
        {
          "internalType": "bytes32",
          "name": "id",
          "type": "bytes32"
        },
        {
          "internalType": "address",
          "name": "payer",
          "type": "address"
        },
        {
          "internalType": "address",
          "name": "payee",
          "type": "address"
        },
        {
          "internalType": "uint256",
          "name": "amount",
          "type": "uint256"
        },
        {
          "internalType": "bytes32",
          "name": "messageHash",
          "type": "bytes32"
        },
        {
          "internalType": "uint256",
          "name": "created",
          "type": "uint256"
        },
        {
          "internalType": "uint256",
          "name": "expiry",
          "type": "uint256"
        },
        {
          "internalType": "bool",
          "name": "released",
          "type": "bool"
        },
        {
          "internalType": "bool",
          "name": "cancelled",
          "type": "bool"
        }
      ],
      "stateMutability": "view",
      "type": "function"
    },
    {
      "inputs": [],
      "name": "minLockAmount",
      "outputs": [
        {
          "internalType": "uint256",
          "name": "",
          "type": "uint256"
        }
      ],
      "stateMutability": "view",
      "type": "function"
    },
    {
      "inputs": [],
      "name": "owner",
      "outputs": [
        {
          "internalType": "address",
          "name": "",
          "type": "address"
        }
      ],
      "stateMutability": "view",
      "type": "function"
    },
    {
      "inputs": [],
      "name": "paymentToken",
      "outputs": [
        {
          "internalType": "contract IERC20",
          "name": "",
          "type": "address"
        }
      ],
      "stateMutability": "view",
      "type": "function"
    },
    {
      "inputs": [],
      "name": "protocolFeePercentage",
      "outputs": [
        {
          "internalType": "uint256",
          "name": "",
          "type": "uint256"
        }
      ],
      "stateMutability": "view",
      "type": "function"
    },
    {
      "inputs": [],
      "name": "protocolTreasury",
      "outputs": [
        {
          "internalType": "address",
          "name": "",
          "type": "address"
        }
      ],
      "stateMutability": "view",
      "type": "function"
    },
    {
      "inputs": [],
      "name": "relayerBondAmount",
      "outputs": [
        {
          "internalType": "uint256",
          "name": "",
          "type": "uint256"
        }
      ],
      "stateMutability": "view",
      "type": "function"
    },
    {
      "inputs": [
        {
          "internalType": "address",
          "name": "",
          "type": "address"
        }
      ],
      "name": "relayerBonds",
      "outputs": [
        {
          "internalType": "uint256",
          "name": "",
          "type": "uint256"
        }
      ],
      "stateMutability": "view",
      "type": "function"
    },
    {
      "inputs": [
        {
          "internalType": "bytes32",
          "name": "lockId",
          "type": "bytes32"
        }
      ],
      "name": "release",
      "outputs": [
        {
          "internalType": "bool",
          "name": "",
          "type": "bool"
        }
      ],
      "stateMutability": "nonpayable",
      "type": "function"
    },
    {
      "inputs": [],
      "name": "removeRelayer",
      "outputs": [],
      "stateMutability": "nonpayable",
      "type": "function"
    },
    {
      "inputs": [],
      "name": "renounceOwnership",
      "outputs": [],
      "stateMutability": "nonpayable",
      "type": "function"
    },
    {
      "inputs": [
        {
          "internalType": "uint256",
          "name": "_expiry",
          "type": "uint256"
        }
      ],
      "name": "setDefaultExpiry",
      "outputs": [],
      "stateMutability": "nonpayable",
      "type": "function"
    },
    {
      "inputs": [
        {
          "internalType": "uint256",
          "name": "_amount",
          "type": "uint256"
        }
      ],
      "name": "setMinLockAmount",
      "outputs": [],
      "stateMutability": "nonpayable",
      "type": "function"
    },
    {
      "inputs": [
        {
          "internalType": "uint256",
          "name": "_percentage",
          "type": "uint256"
        }
      ],
      "name": "setProtocolFeePercentage",
      "outputs": [],
      "stateMutability": "nonpayable",
      "type": "function"
    },
    {
      "inputs": [
        {
          "internalType": "address",
          "name": "_treasury",
          "type": "address"
        }
      ],
      "name": "setProtocolTreasury",
      "outputs": [],
      "stateMutability": "nonpayable",
      "type": "function"
    },
    {
      "inputs": [
        {
          "internalType": "uint256",
          "name": "_amount",
          "type": "uint256"
        }
      ],
      "name": "setRelayerBondAmount",
      "outputs": [],
      "stateMutability": "nonpayable",
      "type": "function"
    },
    {
      "inputs": [
        {
          "internalType": "address",
          "name": "newOwner",
          "type": "address"
        }
      ],
      "name": "transferOwnership",
      "outputs": [],
      "stateMutability": "nonpayable",
      "type": "function"
    }
  ],
  "bytecode": "0x608060405260c860045566038d7ea4c6800060085562015180600955670de0b6b3a7640000600a553480156200003457600080fd5b50604051620015243803806200152483398101604081905262000057916200012d565b33806200007e57604051631e4fbdf760e01b81526000600482015260240160405180910390fd5b6200008981620000c0565b5060018055600280546001600160a01b039384166001600160a01b0319918216179091556003805492909316911617905562000165565b600080546001600160a01b038381166001600160a01b0319831681178455604051919092169283917f8be0079c531659141344cd1fd0a4f28419497f9722a3daafe3b4186f6b6457e09190a35050565b80516001600160a01b03811681146200012857600080fd5b919050565b600080604083850312156200014157600080fd5b6200014c8362000110565b91506200015c6020840162000110565b90509250929050565b6113af80620001756000396000f3fe6080604052600436106101705760003560e01c8063803db96d116100d6578063c4d252f51161007f578063ed5e843711610059578063ed5e8437146104f0578063ef2509d0146105bb578063f2fde38b146105c357600080fd5b8063c4d252f5146103af578063d6f27b58146103cf578063d8a5e936146104d057600080fd5b80638da5cb5b116100b05780638da5cb5b1461035b5780638e50e50914610379578063a941e8d61461038f57600080fd5b8063803db96d146102f85780638cfb3088146103185780638d8c89561461032e57600080fd5b80633013ce291161013857806367d42a8b1161011257806367d42a8b146102ad578063715018a6146102cd57806377308f6b146102e257600080fd5b80633013ce291461024057806356f4b537146102785780636251d8cc1461028d57600080fd5b806308804275146101755780630c5a61f81461019e5780630f68ae40146101c05780631be6780e146101e057806329e295c514610200575b600080fd5b34801561018157600080fd5b5061018b60085481565b6040519081526020015b60405180910390f35b3480156101aa57600080fd5b506101be6101b93660046111e9565b6105e3565b005b3480156101cc57600080fd5b506101be6101db36600461120b565b610668565b3480156101ec57600080fd5b506101be6101fb36600461120b565b610675565b34801561020c57600080fd5b5061023061021b3660046111e9565b60076020526000908152604090205460ff1681565b6040519015158152602001610195565b34801561024c57600080fd5b50600254610260906001600160a01b031681565b6040516001600160a01b039091168152602001610195565b34801561028457600080fd5b506101be610682565b34801561029957600080fd5b506102306102a8366004611224565b61076b565b3480156102b957600080fd5b506102306102c836600461120b565b610a64565b3480156102d957600080fd5b506101be610dcc565b3480156102ee57600080fd5b5061018b600a5481565b34801561030457600080fd5b50600354610260906001600160a01b031681565b34801561032457600080fd5b5061018b60095481565b34801561033a57600080fd5b5061018b6103493660046111e9565b60066020526000908152604090205481565b34801561036757600080fd5b506000546001600160a01b0316610260565b34801561038557600080fd5b5061018b60045481565b34801561039b57600080fd5b506101be6103aa36600461120b565b610dde565b3480156103bb57600080fd5b506102306103ca36600461120b565b610deb565b3480156103db57600080fd5b506104c36103ea36600461120b565b6040805161012081018252600080825260208201819052918101829052606081018290526080810182905260a0810182905260c0810182905260e08101829052610100810191909152506000908152600560208181526040928390208351610120810185528154815260018201546001600160a01b039081169382019390935260028201549092169382019390935260038301546060820152600483015460808201529082015460a0820152600682015460c082015260079091015460ff808216151560e0840152610100918290041615159082015290565b604051610195919061125f565b3480156104dc57600080fd5b506101be6104eb36600461120b565b610ff2565b3480156104fc57600080fd5b5061056761050b36600461120b565b60056020819052600091825260409091208054600182015460028301546003840154600485015495850154600686015460079096015494966001600160a01b039485169694909316949193909160ff8082169161010090041689565b60408051998a526001600160a01b0398891660208b015296909716958801959095526060870193909352608086019190915260a085015260c0840152151560e0830152151561010082015261012001610195565b6101be611040565b3480156105cf57600080fd5b506101be6105de3660046111e9565b6110ed565b6105eb61112b565b6001600160a01b0381166106465760405162461bcd60e51b815260206004820152601060248201527f496e76616c69642074726561737572790000000000000000000000000000000060448201526064015b60405180910390fd5b600380546001600160a01b0319166001600160a01b0392909216919091179055565b61067061112b565b600855565b61067d61112b565b600a55565b61068a611158565b3360009081526007602052604090205460ff166106d95760405162461bcd60e51b815260206004820152600d60248201526c2737ba1030903932b630bcb2b960991b604482015260640161063d565b3360008181526006602090815260408083208054908490556007909252808320805460ff191690555190929183156108fc02918491818181858888f1935050505015801561072b573d6000803e3d6000fd5b506040805133815290517f10e1f7ce9fd7d1b90a66d13a2ab3cb8dd7f29f3f8d520b143b063ccfbab6906b9181900360200190a15061076960018055565b565b6000610775611158565b6000858152600560205260409020600101546001600160a01b0316156107cb5760405162461bcd60e51b815260206004820152600b60248201526a4c6f636b2065786973747360a81b604482015260640161063d565b60085483101561081d5760405162461bcd60e51b815260206004820152601060248201527f416d6f756e7420746f6f20736d616c6c00000000000000000000000000000000604482015260640161063d565b6002546001600160a01b03166323b872dd336040517fffffffff0000000000000000000000000000000000000000000000000000000060e084901b1681526001600160a01b039091166004820152306024820152604481018690526064016020604051808303816000875af115801561089a573d6000803e3d6000fd5b505050506040513d601f19601f820116820180604052508101906108be91906112dc565b6108fc5760405162461bcd60e51b815260206004820152600f60248201526e151c985b9cd9995c8819985a5b1959608a1b604482015260640161063d565b6040518061012001604052808681526020016109153390565b6001600160a01b03168152602001856001600160a01b03168152602001848152602001838152602001428152602001600954426109529190611314565b815260006020808301829052604092830182905288825260058082529183902084518155908401516001820180546001600160a01b03199081166001600160a01b039384161790915593850151600283018054909516911617909255606083015160038301556080830151600483015560a08301519082015560c0820151600682015560e0820151600790910180546101009384015161ffff1990911692151561ff00191692909217911515909202179055847f4181a06c44d563d67c52a8f554a8811343ad6e95f7002375e5a64722953ac82833604080516001600160a01b0392831681529188166020830152810186905260600160405180910390a2506001610a5c60018055565b949350505050565b6000610a6e611158565b3360009081526007602052604090205460ff16610acd5760405162461bcd60e51b815260206004820152601660248201527f4e6f7420617574686f72697a65642072656c6179657200000000000000000000604482015260640161063d565b600082815260056020526040902060018101546001600160a01b0316610b355760405162461bcd60e51b815260206004820152600e60248201527f4c6f636b206e6f7420666f756e64000000000000000000000000000000000000604482015260640161063d565b600781015460ff16158015610b5457506007810154610100900460ff16155b610b945760405162461bcd60e51b8152602060048201526011602482015270105b1c9958591e481c1c9bd8d95cdcd959607a1b604482015260640161063d565b60078101805460ff19166001179055600454600382015460009161271091610bbc919061132d565b610bc69190611344565b90506000818360030154610bda9190611366565b9050600082118015610bf657506003546001600160a01b031615155b15610cc05760025460035460405163a9059cbb60e01b81526001600160a01b0391821660048201526024810185905291169063a9059cbb906044016020604051808303816000875af1158015610c50573d6000803e3d6000fd5b505050506040513d601f19601f82011682018060405250810190610c7491906112dc565b610cc05760405162461bcd60e51b815260206004820152601360248201527f466565207472616e73666572206661696c656400000000000000000000000000604482015260640161063d565b600280549084015460405163a9059cbb60e01b81526001600160a01b0391821660048201526024810184905291169063a9059cbb906044016020604051808303816000875af1158015610d17573d6000803e3d6000fd5b505050506040513d601f19601f82011682018060405250810190610d3b91906112dc565b610d795760405162461bcd60e51b815260206004820152600f60248201526e151c985b9cd9995c8819985a5b1959608a1b604482015260640161063d565b847f345362b837633de0469dca5c44bbd675927342809c833db95ef5fd9c284d34fe336040516001600160a01b03909116815260200160405180910390a260019350505050610dc760018055565b919050565b610dd461112b565b6107696000611182565b610de661112b565b600955565b6000610df5611158565b600082815260056020526040902060018101546001600160a01b03163314610e4b5760405162461bcd60e51b81526020600482015260096024820152682737ba103830bcb2b960b91b604482015260640161063d565b600781015460ff16158015610e6a57506007810154610100900460ff16155b610eaa5760405162461bcd60e51b8152602060048201526011602482015270105b1c9958591e481c1c9bd8d95cdcd959607a1b604482015260640161063d565b80600601544211610eeb5760405162461bcd60e51b815260206004820152600b60248201526a139bdd08195e1c1a5c995960aa1b604482015260640161063d565b60078101805461ff0019166101001790556002546001820154600383015460405163a9059cbb60e01b81526001600160a01b039283166004820152602481019190915291169063a9059cbb906044016020604051808303816000875af1158015610f59573d6000803e3d6000fd5b505050506040513d601f19601f82011682018060405250810190610f7d91906112dc565b610fbb5760405162461bcd60e51b815260206004820152600f60248201526e151c985b9cd9995c8819985a5b1959608a1b604482015260640161063d565b60405183907fbaa1eb22f2a492ba1a5fea61b8df4d27c6c8b5f3971e63bb58fa14ff72eedb7090600090a250506001808055919050565b610ffa61112b565b6103e881111561103b5760405162461bcd60e51b815260206004820152600c60248201526b08ccaca40e8dede40d0d2ced60a31b604482015260640161063d565b600455565b600a543410156110925760405162461bcd60e51b815260206004820152601160248201527f496e73756666696369656e7420626f6e64000000000000000000000000000000604482015260640161063d565b3360008181526006602090815260408083203490556007825291829020805460ff19166001179055815192835290517f03580ee9f53a62b7cb409a2cb56f9be87747dd15017afc5cef6eef321e4fb2c59281900390910190a1565b6110f561112b565b6001600160a01b03811661111f57604051631e4fbdf760e01b81526000600482015260240161063d565b61112881611182565b50565b6000546001600160a01b031633146107695760405163118cdaa760e01b815233600482015260240161063d565b60026001540361117b57604051633ee5aeb560e01b815260040160405180910390fd5b6002600155565b600080546001600160a01b038381166001600160a01b0319831681178455604051919092169283917f8be0079c531659141344cd1fd0a4f28419497f9722a3daafe3b4186f6b6457e09190a35050565b80356001600160a01b0381168114610dc757600080fd5b6000602082840312156111fb57600080fd5b611204826111d2565b9392505050565b60006020828403121561121d57600080fd5b5035919050565b6000806000806080858703121561123a57600080fd5b8435935061124a602086016111d2565b93969395505050506040820135916060013590565b6000610120820190508251825260208301516001600160a01b0380821660208501528060408601511660408501525050606083015160608301526080830151608083015260a083015160a083015260c083015160c083015260e08301516112ca60e084018215159052565b50610100928301511515919092015290565b6000602082840312156112ee57600080fd5b8151801515811461120457600080fd5b634e487b7160e01b600052601160045260246000fd5b80820180821115611327576113276112fe565b92915050565b8082028115828204841417611327576113276112fe565b60008261136157634e487b7160e01b600052601260045260246000fd5b500490565b81810381811115611327576113276112fe56fea2646970667358221220a075dc11dc36877cd9ad5572dd8b48d533dadd485c2290ade884484fd31ecf6564736f6c63430008140033",
  "linkReferences": {},
  "deployedLinkReferences": {}
}