{
  "_format": "hh-sol-artifact-1",
  "contractName": "DataStream",
  "sourceName": "contracts/DataStream.sol",
  "abi": [
    {
      "inputs": [
        {
          "internalType": "address",
          "name": "_protocolTreasury",
          "type": "address"
        }
      ],
      "stateMutability": "nonpayable",
      "type": "constructor"
    },
    {
      "inputs": [
        {
          "internalType": "address",
          "name": "owner",
          "type": "address"
        }
      ],
      "name": "OwnableInvalidOwner",
      "type": "error"
    },
    {
      "inputs": [
        {
          "internalType": "address",
          "name": "account",
          "type": "address"
        }
      ],
      "name": "OwnableUnauthorizedAccount",
      "type": "error"
    },
    {
      "inputs": [],
      "name": "ReentrancyGuardReentrantCall",
      "type": "error"
    },
    {
      "anonymous": false,
      "inputs": [
        {
          "indexed": true,
          "internalType": "bytes32",
          "name": "channelId",
          "type": "bytes32"
        }
      ],
      "name": "ChannelClosed",
      "type": "event"
    },
    {
      "anonymous": false,
      "inputs": [
        {
          "indexed": true,
          "internalType": "bytes32",
          "name": "channelId",
          "type": "bytes32"
        },
        {
          "indexed": true,
          "internalType": "bytes32",
          "name": "dacId",
          "type": "bytes32"
        },
        {
          "indexed": false,
          "internalType": "address",
          "name": "owner",
          "type": "address"
        }
      ],
      "name": "ChannelCreated",
      "type": "event"
    },
    {
      "anonymous": false,
      "inputs": [
        {
          "indexed": true,
          "internalType": "bytes32",
          "name": "channelId",
          "type": "bytes32"
        }
      ],
      "name": "ChannelUpdated",
      "type": "event"
    },
    {
      "anonymous": false,
      "inputs": [
        {
          "indexed": true,
          "internalType": "address",
          "name": "previousOwner",
          "type": "address"
        },
        {
          "indexed": true,
          "internalType": "address",
          "name": "newOwner",
          "type": "address"
        }
      ],
      "name": "OwnershipTransferred",
      "type": "event"
    },
    {
      "anonymous": false,
      "inputs": [
        {
          "indexed": true,
          "internalType": "bytes32",
          "name": "channelId",
          "type": "bytes32"
        },
        {
          "indexed": false,
          "internalType": "uint256",
          "name": "amount",
          "type": "uint256"
        }
      ],
      "name": "Settled",
      "type": "event"
    },
    {
      "anonymous": false,
      "inputs": [
        {
          "indexed": true,
          "internalType": "bytes32",
          "name": "channelId",
          "type": "bytes32"
        },
        {
          "indexed": true,
          "internalType": "address",
          "name": "subscriber",
          "type": "address"
        },
        {
          "indexed": false,
          "internalType": "uint256",
          "name": "amount",
          "type": "uint256"
        }
      ],
      "name": "Subscribed",
      "type": "event"
    },
    {
      "anonymous": false,
      "inputs": [
        {
          "indexed": true,
          "internalType": "bytes32",
          "name": "channelId",
          "type": "bytes32"
        },
        {
          "indexed": true,
          "internalType": "address",
          "name": "subscriber",
          "type": "address"
        }
      ],
      "name": "Unsubscribed",
      "type": "event"
    },
    {
      "anonymous": false,
      "inputs": [
        {
          "indexed": true,
          "internalType": "bytes32",
          "name": "channelId",
          "type": "bytes32"
        },
        {
          "indexed": true,
          "internalType": "address",
          "name": "user",
          "type": "address"
        },
        {
          "indexed": false,
          "internalType": "uint256",
          "name": "bytes_",
          "type": "uint256"
        },
        {
          "indexed": false,
          "internalType": "uint256",
          "name": "messages",
          "type": "uint256"
        }
      ],
      "name": "UsageRecorded",
      "type": "event"
    },
    {
      "inputs": [
        {
          "internalType": "bytes32",
          "name": "",
          "type": "bytes32"
        },
        {
          "internalType": "uint256",
          "name": "",
          "type": "uint256"
        }
      ],
      "name": "channelSubscribers",
      "outputs": [
        {
          "internalType": "address",
          "name": "",
          "type": "address"
        }
      ],
      "stateMutability": "view",
      "type": "function"
    },
    {
      "inputs": [
        {
          "internalType": "bytes32",
          "name": "",
          "type": "bytes32"
        }
      ],
      "name": "channels",
      "outputs": [
        {
          "internalType": "bytes32",
          "name": "id",
          "type": "bytes32"
        },
        {
          "internalType": "bytes32",
          "name": "dacId",
          "type": "bytes32"
        },
        {
          "internalType": "address",
          "name": "owner",
          "type": "address"
        },
        {
          "internalType": "uint256",
          "name": "pricePerByte",
          "type": "uint256"
        },
        {
          "internalType": "uint256",
          "name": "pricePerMessage",
          "type": "uint256"
        },
        {
          "internalType": "uint256",
          "name": "subscriptionFee",
          "type": "uint256"
        },
        {
          "internalType": "uint256",
          "name": "created",
          "type": "uint256"
        },
        {
          "internalType": "bool",
          "name": "active",
          "type": "bool"
        },
        {
          "internalType": "uint256",
          "name": "totalRevenue",
          "type": "uint256"
        }
      ],
      "stateMutability": "view",
      "type": "function"
    },
    {
      "inputs": [
        {
          "internalType": "bytes32",
          "name": "channelId",
          "type": "bytes32"
        }
      ],
      "name": "closeChannel",
      "outputs": [],
      "stateMutability": "nonpayable",
      "type": "function"
    },
    {
      "inputs": [
        {
          "internalType": "bytes32",
          "name": "dacId",
          "type": "bytes32"
        },
        {
          "internalType": "uint256",
          "name": "pricePerByte",
          "type": "uint256"
        },
        {
          "internalType": "uint256",
          "name": "pricePerMessage",
          "type": "uint256"
        },
        {
          "internalType": "uint256",
          "name": "subscriptionFee",
          "type": "uint256"
        }
      ],
      "name": "createChannel",
      "outputs": [
        {
          "internalType": "bytes32",
          "name": "",
          "type": "bytes32"
        }
      ],
      "stateMutability": "nonpayable",
      "type": "function"
    },
    {
      "inputs": [
        {
          "internalType": "bytes32",
          "name": "",
          "type": "bytes32"
        },
        {
          "internalType": "uint256",
          "name": "",
          "type": "uint256"
        }
      ],
      "name": "dacChannels",
      "outputs": [
        {
          "internalType": "bytes32",
          "name": "",
          "type": "bytes32"
        }
      ],
      "stateMutability": "view",
      "type": "function"
    },
    {
      "inputs": [
        {
          "internalType": "bytes32",
          "name": "channelId",
          "type": "bytes32"
        }
      ],
      "name": "getChannel",
      "outputs": [
        {
          "components": [
            {
              "internalType": "bytes32",
              "name": "id",
              "type": "bytes32"
            },
            {
              "internalType": "bytes32",
              "name": "dacId",
              "type": "bytes32"
            },
            {
              "internalType": "address",
              "name": "owner",
              "type": "address"
            },
            {
              "internalType": "uint256",
              "name": "pricePerByte",
              "type": "uint256"
            },
            {
              "internalType": "uint256",
              "name": "pricePerMessage",
              "type": "uint256"
            },
            {
              "internalType": "uint256",
              "name": "subscriptionFee",
              "type": "uint256"
            },
            {
              "internalType": "uint256",
              "name": "created",
              "type": "uint256"
            },
            {
              "internalType": "bool",
              "name": "active",
              "type": "bool"
            },
            {
              "internalType": "uint256",
              "name": "totalRevenue",
              "type": "uint256"
            }
          ],
          "internalType": "struct DataStream.Channel",
          "name": "",
          "type": "tuple"
        }
      ],
      "stateMutability": "view",
      "type": "function"
    },
    {
      "inputs": [
        {
          "internalType": "bytes32",
          "name": "dacId",
          "type": "bytes32"
        }
      ],
      "name": "getDACChannels",
      "outputs": [
        {
          "internalType": "bytes32[]",
          "name": "",
          "type": "bytes32[]"
        }
      ],
      "stateMutability": "view",
      "type": "function"
    },
    {
      "inputs": [
        {
          "internalType": "bytes32",
          "name": "channelId",
          "type": "bytes32"
        },
        {
          "internalType": "address",
          "name": "user",
          "type": "address"
        }
      ],
      "name": "getSubscription",
      "outputs": [
        {
          "components": [
            {
              "internalType": "uint256",
              "name": "since",
              "type": "uint256"
            },
            {
              "internalType": "uint256",
              "name": "deposited",
              "type": "uint256"
            },
            {
              "internalType": "uint256",
              "name": "used",
              "type": "uint256"
            },
            {
              "internalType": "uint256",
              "name": "bytesConsumed",
              "type": "uint256"
            },
            {
              "internalType": "uint256",
              "name": "messagesConsumed",
              "type": "uint256"
            },
            {
              "internalType": "bool",
              "name": "active",
              "type": "bool"
            }
          ],
          "internalType": "struct DataStream.Subscription",
          "name": "",
          "type": "tuple"
        }
      ],
      "stateMutability": "view",
      "type": "function"
    },
    {
      "inputs": [],
      "name": "owner",
      "outputs": [
        {
          "internalType": "address",
          "name": "",
          "type": "address"
        }
      ],
      "stateMutability": "view",
      "type": "function"
    },
    {
      "inputs": [],
      "name": "platformFeePercent",
      "outputs": [
        {
          "internalType": "uint256",
          "name": "",
          "type": "uint256"
        }
      ],
      "stateMutability": "view",
      "type": "function"
    },
    {
      "inputs": [],
      "name": "protocolTreasury",
      "outputs": [
        {
          "internalType": "address",
          "name": "",
          "type": "address"
        }
      ],
      "stateMutability": "view",
      "type": "function"
    },
    {
      "inputs": [
        {
          "internalType": "bytes32",
          "name": "channelId",
          "type": "bytes32"
        },
        {
          "internalType": "address",
          "name": "user",
          "type": "address"
        },
        {
          "internalType": "uint256",
          "name": "bytes_",
          "type": "uint256"
        },
        {
          "internalType": "uint256",
          "name": "messages",
          "type": "uint256"
        }
      ],
      "name": "recordUsage",
      "outputs": [],
      "stateMutability": "nonpayable",
      "type": "function"
    },
    {
      "inputs": [],
      "name": "renounceOwnership",
      "outputs": [],
      "stateMutability": "nonpayable",
      "type": "function"
    },
    {
      "inputs": [
        {
          "internalType": "uint256",
          "name": "_percent",
          "type": "uint256"
        }
      ],
      "name": "setPlatformFeePercent",
      "outputs": [],
      "stateMutability": "nonpayable",
      "type": "function"
    },
    {
      "inputs": [
        {
          "internalType": "address",
          "name": "_treasury",
          "type": "address"
        }
      ],
      "name": "setProtocolTreasury",
      "outputs": [],
      "stateMutability": "nonpayable",
      "type": "function"
    },
    {
      "inputs": [
        {
          "internalType": "bytes32",
          "name": "channelId",
          "type": "bytes32"
        }
      ],
      "name": "settle",
      "outputs": [
        {
          "internalType": "uint256",
          "name": "",
          "type": "uint256"
        }
      ],
      "stateMutability": "nonpayable",
      "type": "function"
    },
    {
      "inputs": [
        {
          "internalType": "bytes32",
          "name": "channelId",
          "type": "bytes32"
        }
      ],
      "name": "subscribe",
      "outputs": [],
      "stateMutability": "payable",
      "type": "function"
    },
    {
      "inputs": [
        {
          "internalType": "bytes32",
          "name": "",
          "type": "bytes32"
        },
        {
          "internalType": "address",
          "name": "",
          "type": "address"
        }
      ],
      "name": "subscriptions",
      "outputs": [
        {
          "internalType": "uint256",
          "name": "since",
          "type": "uint256"
        },
        {
          "internalType": "uint256",
          "name": "deposited",
          "type": "uint256"
        },
        {
          "internalType": "uint256",
          "name": "used",
          "type": "uint256"
        },
        {
          "internalType": "uint256",
          "name": "bytesConsumed",
          "type": "uint256"
        },
        {
          "internalType": "uint256",
          "name": "messagesConsumed",
          "type": "uint256"
        },
        {
          "internalType": "bool",
          "name": "active",
          "type": "bool"
        }
      ],
      "stateMutability": "view",
      "type": "function"
    },
    {
      "inputs": [
        {
          "internalType": "bytes32",
          "name": "channelId",
          "type": "bytes32"
        }
      ],
      "name": "topUp",
      "outputs": [],
      "stateMutability": "payable",
      "type": "function"
    },
    {
      "inputs": [],
      "name": "totalChannels",
      "outputs": [
        {
          "internalType": "uint256",
          "name": "",
          "type": "uint256"
        }
      ],
      "stateMutability": "view",
      "type": "function"
    },
    {
      "inputs": [
        {
          "internalType": "address",
          "name": "newOwner",
          "type": "address"
        }
      ],
      "name": "transferOwnership",
      "outputs": [],
      "stateMutability": "nonpayable",
      "type": "function"
    },
    {
      "inputs": [
        {
          "internalType": "bytes32",
          "name": "channelId",
          "type": "bytes32"
        },
        {
          "internalType": "uint256",
          "name": "pricePerByte",
          "type": "uint256"
        },
        {
          "internalType": "uint256",
          "name": "pricePerMessage",
          "type": "uint256"
        },
        {
          "internalType": "uint256",
          "name": "subscriptionFee",
          "type": "uint256"
        }
      ],
      "name": "updateChannel",
      "outputs": [],
      "stateMutability": "nonpayable",
      "type": "function"
    }
  ],
  "bytecode": "0x6080604052600260075534801561001557600080fd5b506040516200190c3803806200190c833981016040819052610036916100df565b338061005c57604051631e4fbdf760e01b81526000600482015260240160405180910390fd5b6100658161008f565b5060018055600680546001600160a01b0319166001600160a01b039290921691909117905561010f565b600080546001600160a01b038381166001600160a01b0319831681178455604051919092169283917f8be0079c531659141344cd1fd0a4f28419497f9722a3daafe3b4186f6b6457e09190a35050565b6000602082840312156100f157600080fd5b81516001600160a01b038116811461010857600080fd5b9392505050565b6117ed806200011f6000396000f3fe6080604052600436106101555760003560e01c8063803db96d116100bb5780639d4597a31161007f578063cfa54f3911610059578063cfa54f391461065c578063d2da79721461066f578063f2fde38b1461069c57600080fd5b80639d4597a31461058f578063bf59c5501461061c578063cab230d21461063c57600080fd5b8063803db96d146103bb578063831c2b82146103db5780638c639a851461053b5780638da5cb5b14610551578063987757dd1461056f57600080fd5b80634c2ee09d1161011d578063715018a6116100f7578063715018a6146102c85780637734a9f6146102dd5780637a7ebd7b146102f357600080fd5b80634c2ee09d146102025780635d4c8eef146102225780635f28cb741461025a57600080fd5b80630c5a61f81461015a57806312f1ce281461017c5780631d68d1001461019c5780632faf44f6146101cf57806337c640bf146101e2575b600080fd5b34801561016657600080fd5b5061017a6101753660046115d9565b6106bc565b005b34801561018857600080fd5b5061017a6101973660046115fb565b610741565b3480156101a857600080fd5b506101bc6101b736600461162d565b61084c565b6040519081526020015b60405180910390f35b61017a6101dd36600461164f565b61087d565b3480156101ee57600080fd5b5061017a6101fd366004611668565b610ab5565b34801561020e57600080fd5b5061017a61021d36600461164f565b610d17565b34801561022e57600080fd5b5061024261023d36600461162d565b610e10565b6040516001600160a01b0390911681526020016101c6565b34801561026657600080fd5b5061027a6102753660046116a3565b610e48565b6040516101c69190600060c082019050825182526020830151602083015260408301516040830152606083015160608301526080830151608083015260a0830151151560a083015292915050565b3480156102d457600080fd5b5061017a610ef5565b3480156102e957600080fd5b506101bc60085481565b3480156102ff57600080fd5b5061036961030e36600461164f565b60026020819052600091825260409091208054600182015492820154600383015460048401546005850154600686015460078701546008909701549597966001600160a01b0390951695939492939192909160ff9091169089565b60408051998a5260208a01989098526001600160a01b03909616968801969096526060870193909352608086019190915260a085015260c084015290151560e0830152610100820152610120016101c6565b3480156103c757600080fd5b50600654610242906001600160a01b031681565b3480156103e757600080fd5b506104c36103f636600461164f565b6040805161012081018252600080825260208201819052918101829052606081018290526080810182905260a0810182905260c0810182905260e081018290526101008101919091525060009081526002602081815260409283902083516101208101855281548152600182015492810192909252918201546001600160a01b0316928101929092526003810154606083015260048101546080830152600581015460a0830152600681015460c0830152600781015460ff16151560e08301526008015461010082015290565b6040516101c6919060006101208201905082518252602083015160208301526001600160a01b036040840151166040830152606083015160608301526080830151608083015260a083015160a083015260c083015160c083015260e0830151151560e083015261010080840151818401525092915050565b34801561054757600080fd5b506101bc60075481565b34801561055d57600080fd5b506000546001600160a01b0316610242565b34801561057b57600080fd5b506101bc61058a36600461164f565b610f09565b34801561059b57600080fd5b506105ed6105aa3660046116a3565b6003602081815260009384526040808520909152918352912080546001820154600283015493830154600484015460059094015492949193919290919060ff1686565b6040805196875260208701959095529385019290925260608401526080830152151560a082015260c0016101c6565b34801561062857600080fd5b506101bc6106373660046115fb565b6111a0565b34801561064857600080fd5b5061017a61065736600461164f565b611334565b61017a61066a36600461164f565b611381565b34801561067b57600080fd5b5061068f61068a36600461164f565b611476565b6040516101c691906116cf565b3480156106a857600080fd5b5061017a6106b73660046115d9565b6114d8565b6106c4611516565b6001600160a01b03811661071f5760405162461bcd60e51b815260206004820152601060248201527f496e76616c69642074726561737572790000000000000000000000000000000060448201526064015b60405180910390fd5b600680546001600160a01b0319166001600160a01b0392909216919091179055565b60008481526002602052604090206006015484906107955760405162461bcd60e51b815260206004820152601160248201527010da185b9b995b081b9bdd08199bdd5b99607a1b6044820152606401610716565b6000858152600260208190526040909120015485906001600160a01b031633146107f55760405162461bcd60e51b81526020600482015260116024820152702737ba1031b430b73732b61037bbb732b960791b6044820152606401610716565b6000868152600260205260408082206003810188905560048101879055600581018690559051909188917f66e174b5e03ba247add8660a34e70bdd484239fe794c2567772e8e93a5c1696b9190a250505050505050565b6005602052816000526040600020818154811061086857600080fd5b90600052602060002001600091509150505481565b60008181526002602052604090206006015481906108d15760405162461bcd60e51b815260206004820152601160248201527010da185b9b995b081b9bdd08199bdd5b99607a1b6044820152606401610716565b6108d9611543565b6000828152600260205260409020600781015460ff1661093b5760405162461bcd60e51b815260206004820152601260248201527f4368616e6e656c206e6f742061637469766500000000000000000000000000006044820152606401610716565b806005015434101561098f5760405162461bcd60e51b815260206004820152601060248201527f496e73756666696369656e7420666565000000000000000000000000000000006044820152606401610716565b6040518060c00160405280428152602001348152602001600081526020016000815260200160008152602001600115158152506003600085815260200190815260200160002060006109de3390565b6001600160a01b0316815260208082019290925260409081016000908120845181558484015160018083019190915585840151600283015560608601516003830155608086015160048084019190915560a0909601516005909201805460ff1916921515929092179091558782529383528181208054948501815581528290209092018054336001600160a01b03199091168117909155915134815285917fe22e8c2d8a284063fec10f270bc3c776ffb40bcf816b73eef36354d5f3d7b3d4910160405180910390a350610ab160018055565b5050565b6000848152600260205260409020600601548490610b095760405162461bcd60e51b815260206004820152601160248201527010da185b9b995b081b9bdd08199bdd5b99607a1b6044820152606401610716565b6000858152600260208190526040909120015485906001600160a01b03163314610b695760405162461bcd60e51b81526020600482015260116024820152702737ba1031b430b73732b61037bbb732b960791b6044820152606401610716565b6000868152600260209081526040808320600383528184206001600160a01b038a168552909252909120600581015460ff16610be75760405162461bcd60e51b815260206004820152601360248201527f55736572206e6f742073756273637269626564000000000000000000000000006044820152606401610716565b6000826004015486610bf99190611729565b6003840154610c089089611729565b610c129190611740565b90508082600201548360010154610c299190611753565b1015610c775760405162461bcd60e51b815260206004820152601460248201527f496e73756666696369656e742062616c616e63650000000000000000000000006044820152606401610716565b80826002016000828254610c8b9190611740565b9250508190555086826003016000828254610ca69190611740565b9250508190555085826004016000828254610cc19190611740565b909155505060408051888152602081018890526001600160a01b038a16918b917f151745fc021f117b88578d109c9a2822d2a784678f2da45d61eddb16d7f9ec00910160405180910390a3505050505050505050565b6000818152600260205260409020600601548190610d6b5760405162461bcd60e51b815260206004820152601160248201527010da185b9b995b081b9bdd08199bdd5b99607a1b6044820152606401610716565b6000828152600260208190526040909120015482906001600160a01b03163314610dcb5760405162461bcd60e51b81526020600482015260116024820152702737ba1031b430b73732b61037bbb732b960791b6044820152606401610716565b600083815260026020526040808220600701805460ff191690555184917fceeab2eef998c17fe96f30f83fbf3c55fc5047f6e40c55a0cf72d236e9d2ba7291a2505050565b60046020528160005260406000208181548110610e2c57600080fd5b6000918252602090912001546001600160a01b03169150829050565b610e836040518060c0016040528060008152602001600081526020016000815260200160008152602001600081526020016000151581525090565b5060008281526003602081815260408084206001600160a01b0386168552825292839020835160c081018552815481526001820154928101929092526002810154938201939093529082015460608201526004820154608082015260059091015460ff16151560a08201525b92915050565b610efd611516565b610f07600061156d565b565b6000818152600260205260408120600601548290610f5d5760405162461bcd60e51b815260206004820152601160248201527010da185b9b995b081b9bdd08199bdd5b99607a1b6044820152606401610716565b6000838152600260208190526040909120015483906001600160a01b03163314610fbd5760405162461bcd60e51b81526020600482015260116024820152702737ba1031b430b73732b61037bbb732b960791b6044820152606401610716565b610fc5611543565b600084815260026020908152604080832060049092528220909190815b815481101561106c5760008881526003602052604081208354829085908590811061100f5761100f611766565b60009182526020808320909101546001600160a01b03168352820192909252604001902060028101549091501561105957600281015461104f9085611740565b6000600283015593505b50806110648161177c565b915050610fe2565b5081156111525760006064600754846110859190611729565b61108f9190611795565b9050600061109d8285611753565b60028601546040519192506001600160a01b03169082156108fc029083906000818181858888f193505050501580156110da573d6000803e3d6000fd5b506000821180156110f557506006546001600160a01b031615155b15611136576006546040516001600160a01b039091169083156108fc029084906000818181858888f19350505050158015611134573d6000803e3d6000fd5b505b8385600801600082825461114a9190611740565b909155505050505b867ff8cd5951a4d275639396b7a7bbcf5eee708975d6b14cae09b50ff2a3a602e13f8360405161118491815260200190565b60405180910390a25093505061119960018055565b5050919050565b600880546040805133606081901b6bffffffffffffffffffffffff1916602080840191909152603483018a9052426054840181905260748085019690965284518085039096018652609484018086528651968301969096206101b48501865280875260b485018c815260d4860194855260f486018c815261011487018c815261013488018c8152610154890195865260016101748a018181526000610194909b018b8152878c526002808b528d8d209e518f5596518e8401559951958d0180546001600160a01b0319166001600160a01b0390971696909617909555925160038c0155905160048b0155516005808b0191909155935160068a0155905160078901805460ff19169115159190911790559351968801969096558a8452815292822080549182018155825291812090910182905582549092836112e18361177c565b919050555085817f60360ad4eced369bf4110881f32a9449132e25844f794535c2b2a04ce3994d076113103390565b6040516001600160a01b03909116815260200160405180910390a395945050505050565b61133c611516565b600a81111561137c5760405162461bcd60e51b815260206004820152600c60248201526b08ccaca40e8dede40d0d2ced60a31b6044820152606401610716565b600755565b60008181526002602052604090206006015481906113d55760405162461bcd60e51b815260206004820152601160248201527010da185b9b995b081b9bdd08199bdd5b99607a1b6044820152606401610716565b600082815260036020908152604080832033845290915290206005015460ff166114415760405162461bcd60e51b815260206004820152600e60248201527f4e6f7420737562736372696265640000000000000000000000000000000000006044820152606401610716565b60008281526003602090815260408083203384529091528120600101805434929061146d908490611740565b90915550505050565b6000818152600560209081526040918290208054835181840281018401909452808452606093928301828280156114cc57602002820191906000526020600020905b8154815260200190600101908083116114b8575b50505050509050919050565b6114e0611516565b6001600160a01b03811661150a57604051631e4fbdf760e01b815260006004820152602401610716565b6115138161156d565b50565b6000546001600160a01b03163314610f075760405163118cdaa760e01b8152336004820152602401610716565b60026001540361156657604051633ee5aeb560e01b815260040160405180910390fd5b6002600155565b600080546001600160a01b038381166001600160a01b0319831681178455604051919092169283917f8be0079c531659141344cd1fd0a4f28419497f9722a3daafe3b4186f6b6457e09190a35050565b80356001600160a01b03811681146115d457600080fd5b919050565b6000602082840312156115eb57600080fd5b6115f4826115bd565b9392505050565b6000806000806080858703121561161157600080fd5b5050823594602084013594506040840135936060013592509050565b6000806040838503121561164057600080fd5b50508035926020909101359150565b60006020828403121561166157600080fd5b5035919050565b6000806000806080858703121561167e57600080fd5b8435935061168e602086016115bd565b93969395505050506040820135916060013590565b600080604083850312156116b657600080fd5b823591506116c6602084016115bd565b90509250929050565b6020808252825182820181905260009190848201906040850190845b81811015611707578351835292840192918401916001016116eb565b50909695505050505050565b634e487b7160e01b600052601160045260246000fd5b8082028115828204841417610eef57610eef611713565b80820180821115610eef57610eef611713565b81810381811115610eef57610eef611713565b634e487b7160e01b600052603260045260246000fd5b60006001820161178e5761178e611713565b5060010190565b6000826117b257634e487b7160e01b600052601260045260246000fd5b50049056fea2646970667358221220ed05f5bec742adea97609c8cdf4f2e28f02d998bcf35f254ed247038a30ca9f764736f6c63430008140033",
  "linkReferences": {},
  "deployedLinkReferences": {}
}