{
  "_format": "hh-sol-artifact-1",
  "contractName": "DACRegistry",
  "sourceName": "contracts/DACRegistry.sol",
  "abi": [
    {
      "inputs": [
        {
          "internalType": "address",
          "name": "_protocolTreasury",
          "type": "address"
        }
      ],
      "stateMutability": "nonpayable",
      "type": "constructor"
    },
    {
      "inputs": [
        {
          "internalType": "address",
          "name": "owner",
          "type": "address"
        }
      ],
      "name": "OwnableInvalidOwner",
      "type": "error"
    },
    {
      "inputs": [
        {
          "internalType": "address",
          "name": "account",
          "type": "address"
        }
      ],
      "name": "OwnableUnauthorizedAccount",
      "type": "error"
    },
    {
      "inputs": [],
      "name": "ReentrancyGuardReentrantCall",
      "type": "error"
    },
    {
      "anonymous": false,
      "inputs": [
        {
          "indexed": true,
          "internalType": "bytes32",
          "name": "dacId",
          "type": "bytes32"
        }
      ],
      "name": "DACDeactivated",
      "type": "event"
    },
    {
      "anonymous": false,
      "inputs": [
        {
          "indexed": true,
          "internalType": "bytes32",
          "name": "dacId",
          "type": "bytes32"
        },
        {
          "indexed": true,
          "internalType": "address",
          "name": "owner",
          "type": "address"
        },
        {
          "indexed": false,
          "internalType": "string",
          "name": "metadataURI",
          "type": "string"
        }
      ],
      "name": "DACRegistered",
      "type": "event"
    },
    {
      "anonymous": false,
      "inputs": [
        {
          "indexed": true,
          "internalType": "bytes32",
          "name": "dacId",
          "type": "bytes32"
        },
        {
          "indexed": true,
          "internalType": "address",
          "name": "from",
          "type": "address"
        },
        {
          "indexed": true,
          "internalType": "address",
          "name": "to",
          "type": "address"
        }
      ],
      "name": "DACTransferred",
      "type": "event"
    },
    {
      "anonymous": false,
      "inputs": [
        {
          "indexed": true,
          "internalType": "bytes32",
          "name": "dacId",
          "type": "bytes32"
        },
        {
          "indexed": false,
          "internalType": "string",
          "name": "metadataURI",
          "type": "string"
        }
      ],
      "name": "DACUpdated",
      "type": "event"
    },
    {
      "anonymous": false,
      "inputs": [
        {
          "indexed": true,
          "internalType": "address",
          "name": "previousOwner",
          "type": "address"
        },
        {
          "indexed": true,
          "internalType": "address",
          "name": "newOwner",
          "type": "address"
        }
      ],
      "name": "OwnershipTransferred",
      "type": "event"
    },
    {
      "anonymous": false,
      "inputs": [
        {
          "indexed": true,
          "internalType": "bytes32",
          "name": "dacId",
          "type": "bytes32"
        },
        {
          "indexed": true,
          "internalType": "address",
          "name": "account",
          "type": "address"
        },
        {
          "indexed": false,
          "internalType": "uint8",
          "name": "role",
          "type": "uint8"
        }
      ],
      "name": "PermissionGranted",
      "type": "event"
    },
    {
      "anonymous": false,
      "inputs": [
        {
          "indexed": true,
          "internalType": "bytes32",
          "name": "dacId",
          "type": "bytes32"
        },
        {
          "indexed": true,
          "internalType": "address",
          "name": "account",
          "type": "address"
        }
      ],
      "name": "PermissionRevoked",
      "type": "event"
    },
    {
      "anonymous": false,
      "inputs": [
        {
          "indexed": true,
          "internalType": "bytes32",
          "name": "dacId",
          "type": "bytes32"
        },
        {
          "indexed": false,
          "internalType": "uint256",
          "name": "amount",
          "type": "uint256"
        }
      ],
      "name": "StakeUpdated",
      "type": "event"
    },
    {
      "inputs": [
        {
          "internalType": "bytes32",
          "name": "dacId",
          "type": "bytes32"
        }
      ],
      "name": "addStake",
      "outputs": [],
      "stateMutability": "payable",
      "type": "function"
    },
    {
      "inputs": [
        {
          "internalType": "bytes32",
          "name": "",
          "type": "bytes32"
        },
        {
          "internalType": "uint256",
          "name": "",
          "type": "uint256"
        }
      ],
      "name": "dacPermissions",
      "outputs": [
        {
          "internalType": "address",
          "name": "account",
          "type": "address"
        },
        {
          "internalType": "uint8",
          "name": "role",
          "type": "uint8"
        },
        {
          "internalType": "uint256",
          "name": "expiry",
          "type": "uint256"
        }
      ],
      "stateMutability": "view",
      "type": "function"
    },
    {
      "inputs": [
        {
          "internalType": "bytes32",
          "name": "",
          "type": "bytes32"
        }
      ],
      "name": "dacs",
      "outputs": [
        {
          "internalType": "bytes32",
          "name": "id",
          "type": "bytes32"
        },
        {
          "internalType": "address",
          "name": "owner",
          "type": "address"
        },
        {
          "internalType": "string",
          "name": "metadataURI",
          "type": "string"
        },
        {
          "internalType": "uint256",
          "name": "created",
          "type": "uint256"
        },
        {
          "internalType": "uint256",
          "name": "updated",
          "type": "uint256"
        },
        {
          "internalType": "bool",
          "name": "active",
          "type": "bool"
        },
        {
          "internalType": "uint256",
          "name": "stake",
          "type": "uint256"
        }
      ],
      "stateMutability": "view",
      "type": "function"
    },
    {
      "inputs": [
        {
          "internalType": "bytes32",
          "name": "dacId",
          "type": "bytes32"
        }
      ],
      "name": "deactivateDAC",
      "outputs": [],
      "stateMutability": "nonpayable",
      "type": "function"
    },
    {
      "inputs": [
        {
          "internalType": "bytes32",
          "name": "dacId",
          "type": "bytes32"
        }
      ],
      "name": "getDAC",
      "outputs": [
        {
          "components": [
            {
              "internalType": "bytes32",
              "name": "id",
              "type": "bytes32"
            },
            {
              "internalType": "address",
              "name": "owner",
              "type": "address"
            },
            {
              "internalType": "string",
              "name": "metadataURI",
              "type": "string"
            },
            {
              "internalType": "uint256",
              "name": "created",
              "type": "uint256"
            },
            {
              "internalType": "uint256",
              "name": "updated",
              "type": "uint256"
            },
            {
              "internalType": "bool",
              "name": "active",
              "type": "bool"
            },
            {
              "internalType": "uint256",
              "name": "stake",
              "type": "uint256"
            }
          ],
          "internalType": "struct DACRegistry.DAC",
          "name": "",
          "type": "tuple"
        }
      ],
      "stateMutability": "view",
      "type": "function"
    },
    {
      "inputs": [
        {
          "internalType": "address",
          "name": "owner",
          "type": "address"
        }
      ],
      "name": "getOwnerDACs",
      "outputs": [
        {
          "internalType": "bytes32[]",
          "name": "",
          "type": "bytes32[]"
        }
      ],
      "stateMutability": "view",
      "type": "function"
    },
    {
      "inputs": [
        {
          "internalType": "bytes32",
          "name": "dacId",
          "type": "bytes32"
        },
        {
          "internalType": "address",
          "name": "account",
          "type": "address"
        },
        {
          "internalType": "uint8",
          "name": "role",
          "type": "uint8"
        },
        {
          "internalType": "uint256",
          "name": "expiry",
          "type": "uint256"
        }
      ],
      "name": "grantPermission",
      "outputs": [],
      "stateMutability": "nonpayable",
      "type": "function"
    },
    {
      "inputs": [
        {
          "internalType": "bytes32",
          "name": "dacId",
          "type": "bytes32"
        },
        {
          "internalType": "address",
          "name": "account",
          "type": "address"
        },
        {
          "internalType": "uint8",
          "name": "minRole",
          "type": "uint8"
        }
      ],
      "name": "hasPermission",
      "outputs": [
        {
          "internalType": "bool",
          "name": "",
          "type": "bool"
        }
      ],
      "stateMutability": "view",
      "type": "function"
    },
    {
      "inputs": [],
      "name": "minStake",
      "outputs": [
        {
          "internalType": "uint256",
          "name": "",
          "type": "uint256"
        }
      ],
      "stateMutability": "view",
      "type": "function"
    },
    {
      "inputs": [],
      "name": "owner",
      "outputs": [
        {
          "internalType": "address",
          "name": "",
          "type": "address"
        }
      ],
      "stateMutability": "view",
      "type": "function"
    },
    {
      "inputs": [
        {
          "internalType": "address",
          "name": "",
          "type": "address"
        },
        {
          "internalType": "uint256",
          "name": "",
          "type": "uint256"
        }
      ],
      "name": "ownerDACs",
      "outputs": [
        {
          "internalType": "bytes32",
          "name": "",
          "type": "bytes32"
        }
      ],
      "stateMutability": "view",
      "type": "function"
    },
    {
      "inputs": [],
      "name": "protocolTreasury",
      "outputs": [
        {
          "internalType": "address",
          "name": "",
          "type": "address"
        }
      ],
      "stateMutability": "view",
      "type": "function"
    },
    {
      "inputs": [
        {
          "internalType": "string",
          "name": "metadataURI",
          "type": "string"
        }
      ],
      "name": "registerDAC",
      "outputs": [
        {
          "internalType": "bytes32",
          "name": "",
          "type": "bytes32"
        }
      ],
      "stateMutability": "payable",
      "type": "function"
    },
    {
      "inputs": [],
      "name": "registrationFee",
      "outputs": [
        {
          "internalType": "uint256",
          "name": "",
          "type": "uint256"
        }
      ],
      "stateMutability": "view",
      "type": "function"
    },
    {
      "inputs": [],
      "name": "renounceOwnership",
      "outputs": [],
      "stateMutability": "nonpayable",
      "type": "function"
    },
    {
      "inputs": [
        {
          "internalType": "uint256",
          "name": "_minStake",
          "type": "uint256"
        }
      ],
      "name": "setMinStake",
      "outputs": [],
      "stateMutability": "nonpayable",
      "type": "function"
    },
    {
      "inputs": [
        {
          "internalType": "address",
          "name": "_treasury",
          "type": "address"
        }
      ],
      "name": "setProtocolTreasury",
      "outputs": [],
      "stateMutability": "nonpayable",
      "type": "function"
    },
    {
      "inputs": [
        {
          "internalType": "uint256",
          "name": "_fee",
          "type": "uint256"
        }
      ],
      "name": "setRegistrationFee",
      "outputs": [],
      "stateMutability": "nonpayable",
      "type": "function"
    },
    {
      "inputs": [],
      "name": "totalDACs",
      "outputs": [
        {
          "internalType": "uint256",
          "name": "",
          "type": "uint256"
        }
      ],
      "stateMutability": "view",
      "type": "function"
    },
    {
      "inputs": [
        {
          "internalType": "bytes32",
          "name": "dacId",
          "type": "bytes32"
        },
        {
          "internalType": "address",
          "name": "newOwner",
          "type": "address"
        }
      ],
      "name": "transferDAC",
      "outputs": [],
      "stateMutability": "nonpayable",
      "type": "function"
    },
    {
      "inputs": [
        {
          "internalType": "address",
          "name": "newOwner",
          "type": "address"
        }
      ],
      "name": "transferOwnership",
      "outputs": [],
      "stateMutability": "nonpayable",
      "type": "function"
    },
    {
      "inputs": [
        {
          "internalType": "bytes32",
          "name": "dacId",
          "type": "bytes32"
        },
        {
          "internalType": "string",
          "name": "metadataURI",
          "type": "string"
        }
      ],
      "name": "updateDAC",
      "outputs": [],
      "stateMutability": "nonpayable",
      "type": "function"
    },
    {
      "inputs": [
        {
          "internalType": "bytes32",
          "name": "dacId",
          "type": "bytes32"
        },
        {
          "internalType": "uint256",
          "name": "amount",
          "type": "uint256"
        }
      ],
      "name": "withdrawStake",
      "outputs": [],
      "stateMutability": "nonpayable",
      "type": "function"
    }
  ],
  "bytecode": "0x6080604052662386f26fc1000060065566071afd498d00006007553480156200002757600080fd5b5060405162001d1a38038062001d1a8339810160408190526200004a91620000f7565b33806200007157604051631e4fbdf760e01b81526000600482015260240160405180910390fd5b6200007c81620000a7565b5060018055600580546001600160a01b0319166001600160a01b039290921691909117905562000129565b600080546001600160a01b038381166001600160a01b0319831681178455604051919092169283917f8be0079c531659141344cd1fd0a4f28419497f9722a3daafe3b4186f6b6457e09190a35050565b6000602082840312156200010a57600080fd5b81516001600160a01b03811681146200012257600080fd5b9392505050565b611be180620001396000396000f3fe6080604052600436106101705760003560e01c8063803db96d116100d6578063c3083a8d1161007f578063f216a40e11610059578063f216a40e1461040a578063f2fde38b14610451578063faf8c46d1461047157600080fd5b8063c3083a8d1461039d578063c320c727146103ca578063cfa2209b146103ea57600080fd5b80638c80fd90116100b05780638c80fd901461033f5780638da5cb5b1461035f578063c23803e71461037d57600080fd5b8063803db96d146102ba57806380ea1cb8146102f25780638a0522101461031f57600080fd5b8063344c21a41161013857806366da754b1161011257806366da754b1461027257806366dd38c714610285578063715018a6146102a557600080fd5b8063344c21a414610226578063375b3c0a146102465780635e0e0d581461025c57600080fd5b8063016bef0c146101755780630a3ee9311461019b5780630c5a61f8146101ce57806314c44e09146101f057806319dc571614610206575b600080fd5b6101886101833660046115c2565b6104a1565b6040519081526020015b60405180910390f35b3480156101a757600080fd5b506101bb6101b6366004611604565b6107a7565b6040516101929796959493929190611663565b3480156101da57600080fd5b506101ee6101e93660046116cd565b61087c565b005b3480156101fc57600080fd5b5061018860075481565b34801561021257600080fd5b506101ee6102213660046116e8565b6108fc565b34801561023257600080fd5b506101ee61024136600461171b565b610ad1565b34801561025257600080fd5b5061018860065481565b34801561026857600080fd5b5061018860085481565b6101ee610280366004611604565b610c44565b34801561029157600080fd5b506101ee6102a0366004611604565b610d68565b3480156102b157600080fd5b506101ee610e58565b3480156102c657600080fd5b506005546102da906001600160a01b031681565b6040516001600160a01b039091168152602001610192565b3480156102fe57600080fd5b5061031261030d366004611604565b610e6c565b604051610192919061175f565b34801561032b57600080fd5b5061018861033a3660046117cf565b610fb6565b34801561034b57600080fd5b506101ee61035a366004611604565b610fe7565b34801561036b57600080fd5b506000546001600160a01b03166102da565b34801561038957600080fd5b506101ee6103983660046117f9565b610ff4565b3480156103a957600080fd5b506103bd6103b83660046116cd565b611168565b6040516101929190611825565b3480156103d657600080fd5b506101ee6103e5366004611604565b6111d4565b3480156103f657600080fd5b506101ee610405366004611869565b6111e1565b34801561041657600080fd5b5061042a6104253660046116e8565b611302565b604080516001600160a01b03909416845260ff909216602084015290820152606001610192565b34801561045d57600080fd5b506101ee61046c3660046116cd565b611352565b34801561047d57600080fd5b5061049161048c3660046118b5565b611390565b6040519015158152602001610192565b60006104ab6114d2565b6007546006546104bb9190611907565b34101561050f5760405162461bcd60e51b815260206004820152601460248201527f496e73756666696369656e74207061796d656e7400000000000000000000000060448201526064015b60405180910390fd5b60003360085460405160609290921b6bffffffffffffffffffffffff19166020830152426034830152605482015260740160408051601f19818403018152918152815160209283012060008181526002909352912060030154909150156105a55760405162461bcd60e51b815260206004820152600a6024820152694441432065786973747360b01b6044820152606401610506565b60006007541180156105c157506005546001600160a01b031615155b15610604576005546007546040516001600160a01b039092169181156108fc0291906000818181858888f19350505050158015610602573d6000803e3d6000fd5b505b6040518060e0016040528082815260200161061c3390565b6001600160a01b0316815260200185858080601f016020809104026020016040519081016040528093929190818152602001838380828437600092019190915250505090825250426020820181905260408201526001606082015260075460809091019061068a903461191a565b905260008281526002602081815260409283902084518155908401516001820180546001600160a01b0319166001600160a01b0390921691909117905591830151908201906106d990826119cc565b5060608201516003820155608082015160048083019190915560a083015160058301805460ff191691151591909117905560c0909201516006909101553360009081526020918252604081208054600181018255908252918120909101829055600880549161074783611a8c565b91905055506107533390565b6001600160a01b0316817ffc58b623a8d3b34b05a45314e396cf1b9845ad8d52ecc523fc2fd4fda1cdabc1868660405161078e929190611aa5565b60405180910390a390506107a160018055565b92915050565b600260208190526000918252604090912080546001820154928201805491936001600160a01b031692916107da90611943565b80601f016020809104026020016040519081016040528092919081815260200182805461080690611943565b80156108535780601f1061082857610100808354040283529160200191610853565b820191906000526020600020905b81548152906001019060200180831161083657829003601f168201915b5050506003840154600485015460058601546006909601549495919490935060ff909116915087565b6108846114fc565b6001600160a01b0381166108da5760405162461bcd60e51b815260206004820152601060248201527f496e76616c6964207472656173757279000000000000000000000000000000006044820152606401610506565b600580546001600160a01b0319166001600160a01b0392909216919091179055565b600082815260026020526040902060030154829061094c5760405162461bcd60e51b815260206004820152600d60248201526c111050c81b9bdd08199bdd5b99609a1b6044820152606401610506565b60008381526002602052604090206001015483906001600160a01b031633146109a75760405162461bcd60e51b815260206004820152600d60248201526c2737ba102220a19037bbb732b960991b6044820152606401610506565b6109af6114d2565b600680546000868152600260205260409020909101546109d090859061191a565b1015610a1e5760405162461bcd60e51b815260206004820152600f60248201527f42656c6f77206d696e207374616b6500000000000000000000000000000000006044820152606401610506565b60008481526002602052604081206006018054859290610a3f90849061191a565b9091555050604051339084156108fc029085906000818181858888f19350505050158015610a71573d6000803e3d6000fd5b50837f2f16f03629d3ae5191078edfd5a1774d247fb2408591f7cf9ff2c3097c5d07d16002600087815260200190815260200160002060060154604051610aba91815260200190565b60405180910390a2610acb60018055565b50505050565b6000848152600260205260409020600301548490610b215760405162461bcd60e51b815260206004820152600d60248201526c111050c81b9bdd08199bdd5b99609a1b6044820152606401610506565b60008581526002602052604090206001015485906001600160a01b03163314610b7c5760405162461bcd60e51b815260206004820152600d60248201526c2737ba102220a19037bbb732b960991b6044820152606401610506565b600086815260036020908152604080832081516060810183526001600160a01b038a811680835260ff8b81168488018181528588018d8152875460018082018a55988c529a8a902096516002909b02909601805491519a90951674ffffffffffffffffffffffffffffffffffffffffff1990911617600160a01b9990921698909802178255915192019190915590519283529188917ff66d6f521f94befece8f183019df9dbdf5448cc1dfac2f89d5512677b82907d8910160405180910390a3505050505050565b6000818152600260205260409020600301548190610c945760405162461bcd60e51b815260206004820152600d60248201526c111050c81b9bdd08199bdd5b99609a1b6044820152606401610506565b60008281526002602052604090206001015482906001600160a01b03163314610cef5760405162461bcd60e51b815260206004820152600d60248201526c2737ba102220a19037bbb732b960991b6044820152606401610506565b60008381526002602052604081206006018054349290610d10908490611907565b90915550506000838152600260205260409081902060060154905184917f2f16f03629d3ae5191078edfd5a1774d247fb2408591f7cf9ff2c3097c5d07d191610d5b91815260200190565b60405180910390a2505050565b6000818152600260205260409020600301548190610db85760405162461bcd60e51b815260206004820152600d60248201526c111050c81b9bdd08199bdd5b99609a1b6044820152606401610506565b60008281526002602052604090206001015482906001600160a01b03163314610e135760405162461bcd60e51b815260206004820152600d60248201526c2737ba102220a19037bbb732b960991b6044820152606401610506565b600083815260026020526040808220600501805460ff191690555184917f42f2b0c814ee69efd847309c59f55e92e3fcb0054720784646cd122c5a2eeb6a91a2505050565b610e606114fc565b610e6a6000611529565b565b610eba6040518060e001604052806000801916815260200160006001600160a01b03168152602001606081526020016000815260200160008152602001600015158152602001600081525090565b600082815260026020818152604092839020835160e0810185528154815260018201546001600160a01b03169281019290925291820180549193840191610f0090611943565b80601f0160208091040260200160405190810160405280929190818152602001828054610f2c90611943565b8015610f795780601f10610f4e57610100808354040283529160200191610f79565b820191906000526020600020905b815481529060010190602001808311610f5c57829003601f168201915b50505091835250506003820154602082015260048201546040820152600582015460ff161515606082015260069091015460809091015292915050565b60046020528160005260406000208181548110610fd257600080fd5b90600052602060002001600091509150505481565b610fef6114fc565b600655565b60008281526002602052604090206003015482906110445760405162461bcd60e51b815260206004820152600d60248201526c111050c81b9bdd08199bdd5b99609a1b6044820152606401610506565b60008381526002602052604090206001015483906001600160a01b0316331461109f5760405162461bcd60e51b815260206004820152600d60248201526c2737ba102220a19037bbb732b960991b6044820152606401610506565b6001600160a01b0383166110e55760405162461bcd60e51b815260206004820152600d60248201526c24b73b30b634b21037bbb732b960991b6044820152606401610506565b6000848152600260209081526040808320600190810180546001600160a01b031981166001600160a01b038a8116918217909355808752600486528487208054948501815587529486209092018990559151911692839188917f820d3be1c6476e536312be8a714fdd5a846d3adffbd2ccc5a80f72f7f5f4b1a091a45050505050565b6001600160a01b0381166000908152600460209081526040918290208054835181840281018401909452808452606093928301828280156111c857602002820191906000526020600020905b8154815260200190600101908083116111b4575b50505050509050919050565b6111dc6114fc565b600755565b60008381526002602052604090206003015483906112315760405162461bcd60e51b815260206004820152600d60248201526c111050c81b9bdd08199bdd5b99609a1b6044820152606401610506565b60008481526002602052604090206001015484906001600160a01b0316331461128c5760405162461bcd60e51b815260206004820152600d60248201526c2737ba102220a19037bbb732b960991b6044820152606401610506565b6000858152600260208190526040909120016112a9848683611ad4565b5060008581526002602052604090819020426004909101555185907fb3278ce941144629a1d2a3c360a0e000496fbb761ac32883fa1403a3dddfea4a906112f39087908790611aa5565b60405180910390a25050505050565b6003602052816000526040600020818154811061131e57600080fd5b6000918252602090912060029091020180546001909101546001600160a01b0382169350600160a01b90910460ff16915083565b61135a6114fc565b6001600160a01b03811661138457604051631e4fbdf760e01b815260006004820152602401610506565b61138d81611529565b50565b6000838152600260205260408120600101546001600160a01b038085169116036113bc575060016114cb565b6000848152600360205260408120905b81548110156114c457846001600160a01b03168282815481106113f1576113f1611b95565b60009182526020909120600290910201546001600160a01b031614801561144757508360ff1682828154811061142957611429611b95565b6000918252602090912060029091020154600160a01b900460ff1610155b80156114a2575081818154811061146057611460611b95565b906000526020600020906002020160010154600014806114a257504282828154811061148e5761148e611b95565b906000526020600020906002020160010154115b156114b2576001925050506114cb565b806114bc81611a8c565b9150506113cc565b5060009150505b9392505050565b6002600154036114f557604051633ee5aeb560e01b815260040160405180910390fd5b6002600155565b6000546001600160a01b03163314610e6a5760405163118cdaa760e01b8152336004820152602401610506565b600080546001600160a01b038381166001600160a01b0319831681178455604051919092169283917f8be0079c531659141344cd1fd0a4f28419497f9722a3daafe3b4186f6b6457e09190a35050565b60008083601f84011261158b57600080fd5b50813567ffffffffffffffff8111156115a357600080fd5b6020830191508360208285010111156115bb57600080fd5b9250929050565b600080602083850312156115d557600080fd5b823567ffffffffffffffff8111156115ec57600080fd5b6115f885828601611579565b90969095509350505050565b60006020828403121561161657600080fd5b5035919050565b6000815180845260005b8181101561164357602081850181015186830182015201611627565b506000602082860101526020601f19601f83011685010191505092915050565b8781526001600160a01b038716602082015260e06040820152600061168b60e083018861161d565b606083019690965250608081019390935290151560a083015260c0909101529392505050565b80356001600160a01b03811681146116c857600080fd5b919050565b6000602082840312156116df57600080fd5b6114cb826116b1565b600080604083850312156116fb57600080fd5b50508035926020909101359150565b803560ff811681146116c857600080fd5b6000806000806080858703121561173157600080fd5b84359350611741602086016116b1565b925061174f6040860161170a565b9396929550929360600135925050565b60208152815160208201526001600160a01b0360208301511660408201526000604083015160e0606084015261179961010084018261161d565b905060608401516080840152608084015160a084015260a0840151151560c084015260c084015160e08401528091505092915050565b600080604083850312156117e257600080fd5b6117eb836116b1565b946020939093013593505050565b6000806040838503121561180c57600080fd5b8235915061181c602084016116b1565b90509250929050565b6020808252825182820181905260009190848201906040850190845b8181101561185d57835183529284019291840191600101611841565b50909695505050505050565b60008060006040848603121561187e57600080fd5b83359250602084013567ffffffffffffffff81111561189c57600080fd5b6118a886828701611579565b9497909650939450505050565b6000806000606084860312156118ca57600080fd5b833592506118da602085016116b1565b91506118e86040850161170a565b90509250925092565b634e487b7160e01b600052601160045260246000fd5b808201808211156107a1576107a16118f1565b818103818111156107a1576107a16118f1565b634e487b7160e01b600052604160045260246000fd5b600181811c9082168061195757607f821691505b60208210810361197757634e487b7160e01b600052602260045260246000fd5b50919050565b601f8211156119c757600081815260208120601f850160051c810160208610156119a45750805b601f850160051c820191505b818110156119c3578281556001016119b0565b5050505b505050565b815167ffffffffffffffff8111156119e6576119e661192d565b6119fa816119f48454611943565b8461197d565b602080601f831160018114611a2f5760008415611a175750858301515b600019600386901b1c1916600185901b1785556119c3565b600085815260208120601f198616915b82811015611a5e57888601518255948401946001909101908401611a3f565b5085821015611a7c5787850151600019600388901b60f8161c191681555b5050505050600190811b01905550565b600060018201611a9e57611a9e6118f1565b5060010190565b60208152816020820152818360408301376000818301604090810191909152601f909201601f19160101919050565b67ffffffffffffffff831115611aec57611aec61192d565b611b0083611afa8354611943565b8361197d565b6000601f841160018114611b345760008515611b1c5750838201355b600019600387901b1c1916600186901b178355611b8e565b600083815260209020601f19861690835b82811015611b655786850135825560209485019460019092019101611b45565b5086821015611b825760001960f88860031b161c19848701351681555b505060018560011b0183555b5050505050565b634e487b7160e01b600052603260045260246000fdfea2646970667358221220cefb7869f5415c368e715f43979b5a73176783c83b38dc1526083e5f0a2f326264736f6c63430008140033",
  "linkReferences": {},
  "deployedLinkReferences": {}
}