{
  "_format": "hh-sol-artifact-1",
  "contractName": "DACRegistry",
  "sourceName": "contracts/DACRegistry.sol",
  "abi": [
    {
      "inputs": [],
      "stateMutability": "nonpayable",
      "type": "constructor"
    },
    {
      "inputs": [
        {
          "internalType": "address",
          "name": "owner",
          "type": "address"
        }
      ],
      "name": "OwnableInvalidOwner",
      "type": "error"
    },
    {
      "inputs": [
        {
          "internalType": "address",
          "name": "account",
          "type": "address"
        }
      ],
      "name": "OwnableUnauthorizedAccount",
      "type": "error"
    },
    {
      "inputs": [],
      "name": "ReentrancyGuardReentrantCall",
      "type": "error"
    },
    {
      "anonymous": false,
      "inputs": [
        {
          "indexed": true,
          "internalType": "bytes32",
          "name": "dacId",
          "type": "bytes32"
        }
      ],
      "name": "DACDeactivated",
      "type": "event"
    },
    {
      "anonymous": false,
      "inputs": [
        {
          "indexed": true,
          "internalType": "bytes32",
          "name": "dacId",
          "type": "bytes32"
        },
        {
          "indexed": true,
          "internalType": "address",
          "name": "owner",
          "type": "address"
        },
        {
          "indexed": false,
          "internalType": "string",
          "name": "metadataURI",
          "type": "string"
        }
      ],
      "name": "DACRegistered",
      "type": "event"
    },
    {
      "anonymous": false,
      "inputs": [
        {
          "indexed": true,
          "internalType": "bytes32",
          "name": "dacId",
          "type": "bytes32"
        },
        {
          "indexed": true,
          "internalType": "address",
          "name": "from",
          "type": "address"
        },
        {
          "indexed": true,
          "internalType": "address",
          "name": "to",
          "type": "address"
        }
      ],
      "name": "DACTransferred",
      "type": "event"
    },
    {
      "anonymous": false,
      "inputs": [
        {
          "indexed": true,
          "internalType": "bytes32",
          "name": "dacId",
          "type": "bytes32"
        },
        {
          "indexed": false,
          "internalType": "string",
          "name": "metadataURI",
          "type": "string"
        }
      ],
      "name": "DACUpdated",
      "type": "event"
    },
    {
      "anonymous": false,
      "inputs": [
        {
          "indexed": true,
          "internalType": "address",
          "name": "previousOwner",
          "type": "address"
        },
        {
          "indexed": true,
          "internalType": "address",
          "name": "newOwner",
          "type": "address"
        }
      ],
      "name": "OwnershipTransferred",
      "type": "event"
    },
    {
      "anonymous": false,
      "inputs": [
        {
          "indexed": true,
          "internalType": "bytes32",
          "name": "dacId",
          "type": "bytes32"
        },
        {
          "indexed": true,
          "internalType": "address",
          "name": "account",
          "type": "address"
        },
        {
          "indexed": false,
          "internalType": "uint8",
          "name": "role",
          "type": "uint8"
        }
      ],
      "name": "PermissionGranted",
      "type": "event"
    },
    {
      "anonymous": false,
      "inputs": [
        {
          "indexed": true,
          "internalType": "bytes32",
          "name": "dacId",
          "type": "bytes32"
        },
        {
          "indexed": true,
          "internalType": "address",
          "name": "account",
          "type": "address"
        }
      ],
      "name": "PermissionRevoked",
      "type": "event"
    },
    {
      "anonymous": false,
      "inputs": [
        {
          "indexed": true,
          "internalType": "bytes32",
          "name": "dacId",
          "type": "bytes32"
        },
        {
          "indexed": false,
          "internalType": "uint256",
          "name": "amount",
          "type": "uint256"
        }
      ],
      "name": "StakeUpdated",
      "type": "event"
    },
    {
      "inputs": [
        {
          "internalType": "bytes32",
          "name": "dacId",
          "type": "bytes32"
        }
      ],
      "name": "addStake",
      "outputs": [],
      "stateMutability": "payable",
      "type": "function"
    },
    {
      "inputs": [
        {
          "internalType": "bytes32",
          "name": "",
          "type": "bytes32"
        },
        {
          "internalType": "uint256",
          "name": "",
          "type": "uint256"
        }
      ],
      "name": "dacPermissions",
      "outputs": [
        {
          "internalType": "address",
          "name": "account",
          "type": "address"
        },
        {
          "internalType": "uint8",
          "name": "role",
          "type": "uint8"
        },
        {
          "internalType": "uint256",
          "name": "expiry",
          "type": "uint256"
        }
      ],
      "stateMutability": "view",
      "type": "function"
    },
    {
      "inputs": [
        {
          "internalType": "bytes32",
          "name": "",
          "type": "bytes32"
        }
      ],
      "name": "dacs",
      "outputs": [
        {
          "internalType": "bytes32",
          "name": "id",
          "type": "bytes32"
        },
        {
          "internalType": "address",
          "name": "owner",
          "type": "address"
        },
        {
          "internalType": "string",
          "name": "metadataURI",
          "type": "string"
        },
        {
          "internalType": "uint256",
          "name": "created",
          "type": "uint256"
        },
        {
          "internalType": "uint256",
          "name": "updated",
          "type": "uint256"
        },
        {
          "internalType": "bool",
          "name": "active",
          "type": "bool"
        },
        {
          "internalType": "uint256",
          "name": "stake",
          "type": "uint256"
        }
      ],
      "stateMutability": "view",
      "type": "function"
    },
    {
      "inputs": [
        {
          "internalType": "bytes32",
          "name": "dacId",
          "type": "bytes32"
        }
      ],
      "name": "deactivateDAC",
      "outputs": [],
      "stateMutability": "nonpayable",
      "type": "function"
    },
    {
      "inputs": [
        {
          "internalType": "bytes32",
          "name": "dacId",
          "type": "bytes32"
        }
      ],
      "name": "getDAC",
      "outputs": [
        {
          "components": [
            {
              "internalType": "bytes32",
              "name": "id",
              "type": "bytes32"
            },
            {
              "internalType": "address",
              "name": "owner",
              "type": "address"
            },
            {
              "internalType": "string",
              "name": "metadataURI",
              "type": "string"
            },
            {
              "internalType": "uint256",
              "name": "created",
              "type": "uint256"
            },
            {
              "internalType": "uint256",
              "name": "updated",
              "type": "uint256"
            },
            {
              "internalType": "bool",
              "name": "active",
              "type": "bool"
            },
            {
              "internalType": "uint256",
              "name": "stake",
              "type": "uint256"
            }
          ],
          "internalType": "struct DACRegistry.DAC",
          "name": "",
          "type": "tuple"
        }
      ],
      "stateMutability": "view",
      "type": "function"
    },
    {
      "inputs": [
        {
          "internalType": "address",
          "name": "owner",
          "type": "address"
        }
      ],
      "name": "getOwnerDACs",
      "outputs": [
        {
          "internalType": "bytes32[]",
          "name": "",
          "type": "bytes32[]"
        }
      ],
      "stateMutability": "view",
      "type": "function"
    },
    {
      "inputs": [
        {
          "internalType": "bytes32",
          "name": "dacId",
          "type": "bytes32"
        },
        {
          "internalType": "address",
          "name": "account",
          "type": "address"
        },
        {
          "internalType": "uint8",
          "name": "role",
          "type": "uint8"
        },
        {
          "internalType": "uint256",
          "name": "expiry",
          "type": "uint256"
        }
      ],
      "name": "grantPermission",
      "outputs": [],
      "stateMutability": "nonpayable",
      "type": "function"
    },
    {
      "inputs": [
        {
          "internalType": "bytes32",
          "name": "dacId",
          "type": "bytes32"
        },
        {
          "internalType": "address",
          "name": "account",
          "type": "address"
        },
        {
          "internalType": "uint8",
          "name": "minRole",
          "type": "uint8"
        }
      ],
      "name": "hasPermission",
      "outputs": [
        {
          "internalType": "bool",
          "name": "",
          "type": "bool"
        }
      ],
      "stateMutability": "view",
      "type": "function"
    },
    {
      "inputs": [],
      "name": "minStake",
      "outputs": [
        {
          "internalType": "uint256",
          "name": "",
          "type": "uint256"
        }
      ],
      "stateMutability": "view",
      "type": "function"
    },
    {
      "inputs": [],
      "name": "owner",
      "outputs": [
        {
          "internalType": "address",
          "name": "",
          "type": "address"
        }
      ],
      "stateMutability": "view",
      "type": "function"
    },
    {
      "inputs": [
        {
          "internalType": "address",
          "name": "",
          "type": "address"
        },
        {
          "internalType": "uint256",
          "name": "",
          "type": "uint256"
        }
      ],
      "name": "ownerDACs",
      "outputs": [
        {
          "internalType": "bytes32",
          "name": "",
          "type": "bytes32"
        }
      ],
      "stateMutability": "view",
      "type": "function"
    },
    {
      "inputs": [
        {
          "internalType": "string",
          "name": "metadataURI",
          "type": "string"
        }
      ],
      "name": "registerDAC",
      "outputs": [
        {
          "internalType": "bytes32",
          "name": "",
          "type": "bytes32"
        }
      ],
      "stateMutability": "payable",
      "type": "function"
    },
    {
      "inputs": [],
      "name": "renounceOwnership",
      "outputs": [],
      "stateMutability": "nonpayable",
      "type": "function"
    },
    {
      "inputs": [
        {
          "internalType": "uint256",
          "name": "_minStake",
          "type": "uint256"
        }
      ],
      "name": "setMinStake",
      "outputs": [],
      "stateMutability": "nonpayable",
      "type": "function"
    },
    {
      "inputs": [],
      "name": "totalDACs",
      "outputs": [
        {
          "internalType": "uint256",
          "name": "",
          "type": "uint256"
        }
      ],
      "stateMutability": "view",
      "type": "function"
    },
    {
      "inputs": [
        {
          "internalType": "bytes32",
          "name": "dacId",
          "type": "bytes32"
        },
        {
          "internalType": "address",
          "name": "newOwner",
          "type": "address"
        }
      ],
      "name": "transferDAC",
      "outputs": [],
      "stateMutability": "nonpayable",
      "type": "function"
    },
    {
      "inputs": [
        {
          "internalType": "address",
          "name": "newOwner",
          "type": "address"
        }
      ],
      "name": "transferOwnership",
      "outputs": [],
      "stateMutability": "nonpayable",
      "type": "function"
    },
    {
      "inputs": [
        {
          "internalType": "bytes32",
          "name": "dacId",
          "type": "bytes32"
        },
        {
          "internalType": "string",
          "name": "metadataURI",
          "type": "string"
        }
      ],
      "name": "updateDAC",
      "outputs": [],
      "stateMutability": "nonpayable",
      "type": "function"
    },
    {
      "inputs": [
        {
          "internalType": "bytes32",
          "name": "dacId",
          "type": "bytes32"
        },
        {
          "internalType": "uint256",
          "name": "amount",
          "type": "uint256"
        }
      ],
      "name": "withdrawStake",
      "outputs": [],
      "stateMutability": "nonpayable",
      "type": "function"
    }
  ],
  "bytecode": "0x6080604052662386f26fc1000060055534801561001b57600080fd5b50338061004257604051631e4fbdf760e01b81526000600482015260240160405180910390fd5b61004b81610055565b50600180556100a5565b600080546001600160a01b038381166001600160a01b0319831681178455604051919092169283917f8be0079c531659141344cd1fd0a4f28419497f9722a3daafe3b4186f6b6457e09190a35050565b6119f9806100b46000396000f3fe6080604052600436106101145760003560e01c806380ea1cb8116100a0578063c3083a8d11610064578063c3083a8d146102dd578063cfa2209b1461030a578063f216a40e1461032a578063f2fde38b14610371578063faf8c46d1461039157600080fd5b806380ea1cb8146102285780638a052210146102555780638c80fd90146102755780638da5cb5b14610295578063c23803e7146102bd57600080fd5b8063375b3c0a116100e7578063375b3c0a146101b45780635e0e0d58146101ca57806366da754b146101e057806366dd38c7146101f3578063715018a61461021357600080fd5b8063016bef0c146101195780630a3ee9311461013f57806319dc571614610172578063344c21a414610194575b600080fd5b61012c6101273660046113da565b6103c1565b6040519081526020015b60405180910390f35b34801561014b57600080fd5b5061015f61015a36600461141c565b61064d565b604051610136979695949392919061147b565b34801561017e57600080fd5b5061019261018d3660046114c9565b610722565b005b3480156101a057600080fd5b506101926101af366004611518565b6108f6565b3480156101c057600080fd5b5061012c60055481565b3480156101d657600080fd5b5061012c60065481565b6101926101ee36600461141c565b610a69565b3480156101ff57600080fd5b5061019261020e36600461141c565b610b8d565b34801561021f57600080fd5b50610192610c7d565b34801561023457600080fd5b5061024861024336600461141c565b610c91565b604051610136919061155c565b34801561026157600080fd5b5061012c6102703660046115cc565b610ddb565b34801561028157600080fd5b5061019261029036600461141c565b610e0c565b3480156102a157600080fd5b506000546040516001600160a01b039091168152602001610136565b3480156102c957600080fd5b506101926102d83660046115f6565b610e19565b3480156102e957600080fd5b506102fd6102f8366004611622565b610f8d565b604051610136919061163d565b34801561031657600080fd5b50610192610325366004611681565b610ff9565b34801561033657600080fd5b5061034a6103453660046114c9565b61111a565b604080516001600160a01b03909416845260ff909216602084015290820152606001610136565b34801561037d57600080fd5b5061019261038c366004611622565b61116a565b34801561039d57600080fd5b506103b16103ac3660046116cd565b6111a8565b6040519015158152602001610136565b60006103cb6112ea565b6005543410156104225760405162461bcd60e51b815260206004820152601260248201527f496e73756666696369656e74207374616b65000000000000000000000000000060448201526064015b60405180910390fd5b60003360065460405160609290921b6bffffffffffffffffffffffff19166020830152426034830152605482015260740160408051601f19818403018152918152815160209283012060008181526002909352912060030154909150156104b85760405162461bcd60e51b815260206004820152600a6024820152694441432065786973747360b01b6044820152606401610419565b6040518060e001604052808281526020016104d03390565b6001600160a01b0316815260200185858080601f0160208091040260200160405190810160405280939291908181526020018383808284376000920182905250938552505042602080850182905260408086019290925260016060860181905234608090960195909552868452600280825293829020865181559086015194810180546001600160a01b0319166001600160a01b0390961695909517909455840151918301916105819150826117a8565b5060608201516003820155608082015160048083019190915560a083015160058301805460ff191691151591909117905560c09092015160069182015533600090815260209283526040812080546001810182559082529281209092018390558054916105ed8361187e565b91905055506105f93390565b6001600160a01b0316817ffc58b623a8d3b34b05a45314e396cf1b9845ad8d52ecc523fc2fd4fda1cdabc18686604051610634929190611897565b60405180910390a3905061064760018055565b92915050565b600260208190526000918252604090912080546001820154928201805491936001600160a01b031692916106809061171f565b80601f01602080910402602001604051908101604052809291908181526020018280546106ac9061171f565b80156106f95780601f106106ce576101008083540402835291602001916106f9565b820191906000526020600020905b8154815290600101906020018083116106dc57829003601f168201915b5050506003840154600485015460058601546006909601549495919490935060ff909116915087565b60008281526002602052604090206003015482906107725760405162461bcd60e51b815260206004820152600d60248201526c111050c81b9bdd08199bdd5b99609a1b6044820152606401610419565b60008381526002602052604090206001015483906001600160a01b031633146107cd5760405162461bcd60e51b815260206004820152600d60248201526c2737ba102220a19037bbb732b960991b6044820152606401610419565b6107d56112ea565b6005546000858152600260205260409020600601546107f59085906118c6565b10156108435760405162461bcd60e51b815260206004820152600f60248201527f42656c6f77206d696e207374616b6500000000000000000000000000000000006044820152606401610419565b600084815260026020526040812060060180548592906108649084906118c6565b9091555050604051339084156108fc029085906000818181858888f19350505050158015610896573d6000803e3d6000fd5b50837f2f16f03629d3ae5191078edfd5a1774d247fb2408591f7cf9ff2c3097c5d07d160026000878152602001908152602001600020600601546040516108df91815260200190565b60405180910390a26108f060018055565b50505050565b60008481526002602052604090206003015484906109465760405162461bcd60e51b815260206004820152600d60248201526c111050c81b9bdd08199bdd5b99609a1b6044820152606401610419565b60008581526002602052604090206001015485906001600160a01b031633146109a15760405162461bcd60e51b815260206004820152600d60248201526c2737ba102220a19037bbb732b960991b6044820152606401610419565b600086815260036020908152604080832081516060810183526001600160a01b038a811680835260ff8b81168488018181528588018d8152875460018082018a55988c529a8a902096516002909b02909601805491519a90951674ffffffffffffffffffffffffffffffffffffffffff1990911617600160a01b9990921698909802178255915192019190915590519283529188917ff66d6f521f94befece8f183019df9dbdf5448cc1dfac2f89d5512677b82907d8910160405180910390a3505050505050565b6000818152600260205260409020600301548190610ab95760405162461bcd60e51b815260206004820152600d60248201526c111050c81b9bdd08199bdd5b99609a1b6044820152606401610419565b60008281526002602052604090206001015482906001600160a01b03163314610b145760405162461bcd60e51b815260206004820152600d60248201526c2737ba102220a19037bbb732b960991b6044820152606401610419565b60008381526002602052604081206006018054349290610b359084906118d9565b90915550506000838152600260205260409081902060060154905184917f2f16f03629d3ae5191078edfd5a1774d247fb2408591f7cf9ff2c3097c5d07d191610b8091815260200190565b60405180910390a2505050565b6000818152600260205260409020600301548190610bdd5760405162461bcd60e51b815260206004820152600d60248201526c111050c81b9bdd08199bdd5b99609a1b6044820152606401610419565b60008281526002602052604090206001015482906001600160a01b03163314610c385760405162461bcd60e51b815260206004820152600d60248201526c2737ba102220a19037bbb732b960991b6044820152606401610419565b600083815260026020526040808220600501805460ff191690555184917f42f2b0c814ee69efd847309c59f55e92e3fcb0054720784646cd122c5a2eeb6a91a2505050565b610c85611314565b610c8f6000611341565b565b610cdf6040518060e001604052806000801916815260200160006001600160a01b03168152602001606081526020016000815260200160008152602001600015158152602001600081525090565b600082815260026020818152604092839020835160e0810185528154815260018201546001600160a01b03169281019290925291820180549193840191610d259061171f565b80601f0160208091040260200160405190810160405280929190818152602001828054610d519061171f565b8015610d9e5780601f10610d7357610100808354040283529160200191610d9e565b820191906000526020600020905b815481529060010190602001808311610d8157829003601f168201915b50505091835250506003820154602082015260048201546040820152600582015460ff161515606082015260069091015460809091015292915050565b60046020528160005260406000208181548110610df757600080fd5b90600052602060002001600091509150505481565b610e14611314565b600555565b6000828152600260205260409020600301548290610e695760405162461bcd60e51b815260206004820152600d60248201526c111050c81b9bdd08199bdd5b99609a1b6044820152606401610419565b60008381526002602052604090206001015483906001600160a01b03163314610ec45760405162461bcd60e51b815260206004820152600d60248201526c2737ba102220a19037bbb732b960991b6044820152606401610419565b6001600160a01b038316610f0a5760405162461bcd60e51b815260206004820152600d60248201526c24b73b30b634b21037bbb732b960991b6044820152606401610419565b6000848152600260209081526040808320600190810180546001600160a01b031981166001600160a01b038a8116918217909355808752600486528487208054948501815587529486209092018990559151911692839188917f820d3be1c6476e536312be8a714fdd5a846d3adffbd2ccc5a80f72f7f5f4b1a091a45050505050565b6001600160a01b038116600090815260046020908152604091829020805483518184028101840190945280845260609392830182828015610fed57602002820191906000526020600020905b815481526020019060010190808311610fd9575b50505050509050919050565b60008381526002602052604090206003015483906110495760405162461bcd60e51b815260206004820152600d60248201526c111050c81b9bdd08199bdd5b99609a1b6044820152606401610419565b60008481526002602052604090206001015484906001600160a01b031633146110a45760405162461bcd60e51b815260206004820152600d60248201526c2737ba102220a19037bbb732b960991b6044820152606401610419565b6000858152600260208190526040909120016110c18486836118ec565b5060008581526002602052604090819020426004909101555185907fb3278ce941144629a1d2a3c360a0e000496fbb761ac32883fa1403a3dddfea4a9061110b9087908790611897565b60405180910390a25050505050565b6003602052816000526040600020818154811061113657600080fd5b6000918252602090912060029091020180546001909101546001600160a01b0382169350600160a01b90910460ff16915083565b611172611314565b6001600160a01b03811661119c57604051631e4fbdf760e01b815260006004820152602401610419565b6111a581611341565b50565b6000838152600260205260408120600101546001600160a01b038085169116036111d4575060016112e3565b6000848152600360205260408120905b81548110156112dc57846001600160a01b0316828281548110611209576112096119ad565b60009182526020909120600290910201546001600160a01b031614801561125f57508360ff16828281548110611241576112416119ad565b6000918252602090912060029091020154600160a01b900460ff1610155b80156112ba5750818181548110611278576112786119ad565b906000526020600020906002020160010154600014806112ba5750428282815481106112a6576112a66119ad565b906000526020600020906002020160010154115b156112ca576001925050506112e3565b806112d48161187e565b9150506111e4565b5060009150505b9392505050565b60026001540361130d57604051633ee5aeb560e01b815260040160405180910390fd5b6002600155565b6000546001600160a01b03163314610c8f5760405163118cdaa760e01b8152336004820152602401610419565b600080546001600160a01b038381166001600160a01b0319831681178455604051919092169283917f8be0079c531659141344cd1fd0a4f28419497f9722a3daafe3b4186f6b6457e09190a35050565b60008083601f8401126113a357600080fd5b50813567ffffffffffffffff8111156113bb57600080fd5b6020830191508360208285010111156113d357600080fd5b9250929050565b600080602083850312156113ed57600080fd5b823567ffffffffffffffff81111561140457600080fd5b61141085828601611391565b90969095509350505050565b60006020828403121561142e57600080fd5b5035919050565b6000815180845260005b8181101561145b5760208185018101518683018201520161143f565b506000602082860101526020601f19601f83011685010191505092915050565b8781526001600160a01b038716602082015260e0604082015260006114a360e0830188611435565b606083019690965250608081019390935290151560a083015260c0909101529392505050565b600080604083850312156114dc57600080fd5b50508035926020909101359150565b80356001600160a01b038116811461150257600080fd5b919050565b803560ff8116811461150257600080fd5b6000806000806080858703121561152e57600080fd5b8435935061153e602086016114eb565b925061154c60408601611507565b9396929550929360600135925050565b60208152815160208201526001600160a01b0360208301511660408201526000604083015160e06060840152611596610100840182611435565b905060608401516080840152608084015160a084015260a0840151151560c084015260c084015160e08401528091505092915050565b600080604083850312156115df57600080fd5b6115e8836114eb565b946020939093013593505050565b6000806040838503121561160957600080fd5b82359150611619602084016114eb565b90509250929050565b60006020828403121561163457600080fd5b6112e3826114eb565b6020808252825182820181905260009190848201906040850190845b8181101561167557835183529284019291840191600101611659565b50909695505050505050565b60008060006040848603121561169657600080fd5b83359250602084013567ffffffffffffffff8111156116b457600080fd5b6116c086828701611391565b9497909650939450505050565b6000806000606084860312156116e257600080fd5b833592506116f2602085016114eb565b915061170060408501611507565b90509250925092565b634e487b7160e01b600052604160045260246000fd5b600181811c9082168061173357607f821691505b60208210810361175357634e487b7160e01b600052602260045260246000fd5b50919050565b601f8211156117a357600081815260208120601f850160051c810160208610156117805750805b601f850160051c820191505b8181101561179f5782815560010161178c565b5050505b505050565b815167ffffffffffffffff8111156117c2576117c2611709565b6117d6816117d0845461171f565b84611759565b602080601f83116001811461180b57600084156117f35750858301515b600019600386901b1c1916600185901b17855561179f565b600085815260208120601f198616915b8281101561183a5788860151825594840194600190910190840161181b565b50858210156118585787850151600019600388901b60f8161c191681555b5050505050600190811b01905550565b634e487b7160e01b600052601160045260246000fd5b60006001820161189057611890611868565b5060010190565b60208152816020820152818360408301376000818301604090810191909152601f909201601f19160101919050565b8181038181111561064757610647611868565b8082018082111561064757610647611868565b67ffffffffffffffff83111561190457611904611709565b61191883611912835461171f565b83611759565b6000601f84116001811461194c57600085156119345750838201355b600019600387901b1c1916600186901b1783556119a6565b600083815260209020601f19861690835b8281101561197d578685013582556020948501946001909201910161195d565b508682101561199a5760001960f88860031b161c19848701351681555b505060018560011b0183555b5050505050565b634e487b7160e01b600052603260045260246000fdfea2646970667358221220cea92739256a00f6485f3cb899503ba5b3bd8c0c86c279b113fa54854b7264bc64736f6c63430008140033",
  "linkReferences": {},
  "deployedLinkReferences": {}
}