{
  "_format": "hh-sol-artifact-1",
  "contractName": "AgentRegistry",
  "sourceName": "contracts/AgentRegistry.sol",
  "abi": [
    {
      "inputs": [],
      "stateMutability": "nonpayable",
      "type": "constructor"
    },
    {
      "inputs": [
        {
          "internalType": "address",
          "name": "owner",
          "type": "address"
        }
      ],
      "name": "OwnableInvalidOwner",
      "type": "error"
    },
    {
      "inputs": [
        {
          "internalType": "address",
          "name": "account",
          "type": "address"
        }
      ],
      "name": "OwnableUnauthorizedAccount",
      "type": "error"
    },
    {
      "inputs": [],
      "name": "ReentrancyGuardReentrantCall",
      "type": "error"
    },
    {
      "anonymous": false,
      "inputs": [
        {
          "indexed": true,
          "internalType": "bytes32",
          "name": "agentId",
          "type": "bytes32"
        }
      ],
      "name": "AgentDeactivated",
      "type": "event"
    },
    {
      "anonymous": false,
      "inputs": [
        {
          "indexed": true,
          "internalType": "bytes32",
          "name": "agentId",
          "type": "bytes32"
        },
        {
          "indexed": true,
          "internalType": "address",
          "name": "owner",
          "type": "address"
        },
        {
          "indexed": false,
          "internalType": "bytes32",
          "name": "edPubKeyHash",
          "type": "bytes32"
        }
      ],
      "name": "AgentRegistered",
      "type": "event"
    },
    {
      "anonymous": false,
      "inputs": [
        {
          "indexed": true,
          "internalType": "bytes32",
          "name": "agentId",
          "type": "bytes32"
        },
        {
          "indexed": false,
          "internalType": "uint256",
          "name": "amount",
          "type": "uint256"
        },
        {
          "indexed": false,
          "internalType": "string",
          "name": "reason",
          "type": "string"
        }
      ],
      "name": "AgentSlashed",
      "type": "event"
    },
    {
      "anonymous": false,
      "inputs": [
        {
          "indexed": true,
          "internalType": "bytes32",
          "name": "agentId",
          "type": "bytes32"
        },
        {
          "indexed": false,
          "internalType": "bytes32",
          "name": "newEdPubKeyHash",
          "type": "bytes32"
        },
        {
          "indexed": false,
          "internalType": "bytes32",
          "name": "newXPubKeyHash",
          "type": "bytes32"
        }
      ],
      "name": "KeysRotated",
      "type": "event"
    },
    {
      "anonymous": false,
      "inputs": [
        {
          "indexed": true,
          "internalType": "address",
          "name": "previousOwner",
          "type": "address"
        },
        {
          "indexed": true,
          "internalType": "address",
          "name": "newOwner",
          "type": "address"
        }
      ],
      "name": "OwnershipTransferred",
      "type": "event"
    },
    {
      "anonymous": false,
      "inputs": [
        {
          "indexed": true,
          "internalType": "bytes32",
          "name": "agentId",
          "type": "bytes32"
        },
        {
          "indexed": false,
          "internalType": "uint256",
          "name": "newReputation",
          "type": "uint256"
        }
      ],
      "name": "ReputationUpdated",
      "type": "event"
    },
    {
      "inputs": [
        {
          "internalType": "bytes32",
          "name": "",
          "type": "bytes32"
        }
      ],
      "name": "agents",
      "outputs": [
        {
          "internalType": "bytes32",
          "name": "id",
          "type": "bytes32"
        },
        {
          "internalType": "bytes32",
          "name": "edPubKeyHash",
          "type": "bytes32"
        },
        {
          "internalType": "bytes32",
          "name": "xPubKeyHash",
          "type": "bytes32"
        },
        {
          "internalType": "address",
          "name": "owner",
          "type": "address"
        },
        {
          "internalType": "string",
          "name": "metadataURI",
          "type": "string"
        },
        {
          "internalType": "uint256",
          "name": "registered",
          "type": "uint256"
        },
        {
          "internalType": "uint256",
          "name": "lastKeyRotation",
          "type": "uint256"
        },
        {
          "internalType": "bool",
          "name": "active",
          "type": "bool"
        },
        {
          "internalType": "uint256",
          "name": "reputation",
          "type": "uint256"
        },
        {
          "internalType": "uint256",
          "name": "stake",
          "type": "uint256"
        }
      ],
      "stateMutability": "view",
      "type": "function"
    },
    {
      "inputs": [
        {
          "internalType": "bytes32",
          "name": "agentId",
          "type": "bytes32"
        }
      ],
      "name": "deactivateAgent",
      "outputs": [],
      "stateMutability": "nonpayable",
      "type": "function"
    },
    {
      "inputs": [
        {
          "internalType": "bytes32",
          "name": "agentId",
          "type": "bytes32"
        }
      ],
      "name": "getAgent",
      "outputs": [
        {
          "components": [
            {
              "internalType": "bytes32",
              "name": "id",
              "type": "bytes32"
            },
            {
              "internalType": "bytes32",
              "name": "edPubKeyHash",
              "type": "bytes32"
            },
            {
              "internalType": "bytes32",
              "name": "xPubKeyHash",
              "type": "bytes32"
            },
            {
              "internalType": "address",
              "name": "owner",
              "type": "address"
            },
            {
              "internalType": "string",
              "name": "metadataURI",
              "type": "string"
            },
            {
              "internalType": "uint256",
              "name": "registered",
              "type": "uint256"
            },
            {
              "internalType": "uint256",
              "name": "lastKeyRotation",
              "type": "uint256"
            },
            {
              "internalType": "bool",
              "name": "active",
              "type": "bool"
            },
            {
              "internalType": "uint256",
              "name": "reputation",
              "type": "uint256"
            },
            {
              "internalType": "uint256",
              "name": "stake",
              "type": "uint256"
            }
          ],
          "internalType": "struct AgentRegistry.Agent",
          "name": "",
          "type": "tuple"
        }
      ],
      "stateMutability": "view",
      "type": "function"
    },
    {
      "inputs": [
        {
          "internalType": "bytes32",
          "name": "edPubKeyHash",
          "type": "bytes32"
        }
      ],
      "name": "getAgentByPubKey",
      "outputs": [
        {
          "components": [
            {
              "internalType": "bytes32",
              "name": "id",
              "type": "bytes32"
            },
            {
              "internalType": "bytes32",
              "name": "edPubKeyHash",
              "type": "bytes32"
            },
            {
              "internalType": "bytes32",
              "name": "xPubKeyHash",
              "type": "bytes32"
            },
            {
              "internalType": "address",
              "name": "owner",
              "type": "address"
            },
            {
              "internalType": "string",
              "name": "metadataURI",
              "type": "string"
            },
            {
              "internalType": "uint256",
              "name": "registered",
              "type": "uint256"
            },
            {
              "internalType": "uint256",
              "name": "lastKeyRotation",
              "type": "uint256"
            },
            {
              "internalType": "bool",
              "name": "active",
              "type": "bool"
            },
            {
              "internalType": "uint256",
              "name": "reputation",
              "type": "uint256"
            },
            {
              "internalType": "uint256",
              "name": "stake",
              "type": "uint256"
            }
          ],
          "internalType": "struct AgentRegistry.Agent",
          "name": "",
          "type": "tuple"
        }
      ],
      "stateMutability": "view",
      "type": "function"
    },
    {
      "inputs": [],
      "name": "keyRotationCooldown",
      "outputs": [
        {
          "internalType": "uint256",
          "name": "",
          "type": "uint256"
        }
      ],
      "stateMutability": "view",
      "type": "function"
    },
    {
      "inputs": [],
      "name": "minStake",
      "outputs": [
        {
          "internalType": "uint256",
          "name": "",
          "type": "uint256"
        }
      ],
      "stateMutability": "view",
      "type": "function"
    },
    {
      "inputs": [],
      "name": "owner",
      "outputs": [
        {
          "internalType": "address",
          "name": "",
          "type": "address"
        }
      ],
      "stateMutability": "view",
      "type": "function"
    },
    {
      "inputs": [
        {
          "internalType": "address",
          "name": "",
          "type": "address"
        },
        {
          "internalType": "uint256",
          "name": "",
          "type": "uint256"
        }
      ],
      "name": "ownerAgents",
      "outputs": [
        {
          "internalType": "bytes32",
          "name": "",
          "type": "bytes32"
        }
      ],
      "stateMutability": "view",
      "type": "function"
    },
    {
      "inputs": [
        {
          "internalType": "bytes32",
          "name": "",
          "type": "bytes32"
        }
      ],
      "name": "pubKeyToAgent",
      "outputs": [
        {
          "internalType": "bytes32",
          "name": "",
          "type": "bytes32"
        }
      ],
      "stateMutability": "view",
      "type": "function"
    },
    {
      "inputs": [
        {
          "internalType": "bytes32",
          "name": "edPubKeyHash",
          "type": "bytes32"
        },
        {
          "internalType": "bytes32",
          "name": "xPubKeyHash",
          "type": "bytes32"
        },
        {
          "internalType": "string",
          "name": "metadataURI",
          "type": "string"
        }
      ],
      "name": "registerAgent",
      "outputs": [
        {
          "internalType": "bytes32",
          "name": "",
          "type": "bytes32"
        }
      ],
      "stateMutability": "payable",
      "type": "function"
    },
    {
      "inputs": [],
      "name": "renounceOwnership",
      "outputs": [],
      "stateMutability": "nonpayable",
      "type": "function"
    },
    {
      "inputs": [
        {
          "internalType": "bytes32",
          "name": "agentId",
          "type": "bytes32"
        },
        {
          "internalType": "bytes32",
          "name": "newEdPubKeyHash",
          "type": "bytes32"
        },
        {
          "internalType": "bytes32",
          "name": "newXPubKeyHash",
          "type": "bytes32"
        }
      ],
      "name": "rotateKeys",
      "outputs": [],
      "stateMutability": "nonpayable",
      "type": "function"
    },
    {
      "inputs": [
        {
          "internalType": "bytes32",
          "name": "agentId",
          "type": "bytes32"
        },
        {
          "internalType": "uint256",
          "name": "amount",
          "type": "uint256"
        },
        {
          "internalType": "string",
          "name": "reason",
          "type": "string"
        }
      ],
      "name": "slash",
      "outputs": [],
      "stateMutability": "nonpayable",
      "type": "function"
    },
    {
      "inputs": [],
      "name": "totalAgents",
      "outputs": [
        {
          "internalType": "uint256",
          "name": "",
          "type": "uint256"
        }
      ],
      "stateMutability": "view",
      "type": "function"
    },
    {
      "inputs": [
        {
          "internalType": "address",
          "name": "newOwner",
          "type": "address"
        }
      ],
      "name": "transferOwnership",
      "outputs": [],
      "stateMutability": "nonpayable",
      "type": "function"
    },
    {
      "inputs": [
        {
          "internalType": "bytes32",
          "name": "agentId",
          "type": "bytes32"
        },
        {
          "internalType": "int256",
          "name": "delta",
          "type": "int256"
        }
      ],
      "name": "updateReputation",
      "outputs": [],
      "stateMutability": "nonpayable",
      "type": "function"
    },
    {
      "inputs": [
        {
          "internalType": "bytes32",
          "name": "agentId",
          "type": "bytes32"
        },
        {
          "internalType": "bytes32",
          "name": "edPubKeyHash",
          "type": "bytes32"
        }
      ],
      "name": "verifyAgent",
      "outputs": [
        {
          "internalType": "bool",
          "name": "",
          "type": "bool"
        }
      ],
      "stateMutability": "view",
      "type": "function"
    }
  ],
  "bytecode": "0x608060405266038d7ea4c680006005556201518060075534801561002257600080fd5b50338061004957604051631e4fbdf760e01b81526000600482015260240160405180910390fd5b6100528161005c565b50600180556100ac565b600080546001600160a01b038381166001600160a01b0319831681178455604051919092169283917f8be0079c531659141344cd1fd0a4f28419497f9722a3daafe3b4186f6b6457e09190a35050565b611544806100bb6000396000f3fe6080604052600436106100fe5760003560e01c8063956898a311610095578063d3ef47e811610064578063d3ef47e8146102bb578063d5a75ce5146102db578063dd7789a1146102fb578063e0990ecd1461031b578063f2fde38b1461032e57600080fd5b8063956898a314610228578063a69f0e0014610255578063a6c2af0114610285578063c5053712146102a557600080fd5b80635b73eccd116100d15780635b73eccd146101b557806362febe4f146101cb578063715018a6146101eb5780638da5cb5b1461020057600080fd5b806305f9abbf146101035780632e20ee1814610139578063375b3c0a1461016f57806359b5acf314610193575b600080fd5b34801561010f57600080fd5b5061012361011e366004611059565b61034e565b60405161013091906110b8565b60405180910390f35b34801561014557600080fd5b50610159610154366004611059565b610510565b6040516101309a99989796959493929190611158565b34801561017b57600080fd5b5061018560055481565b604051908152602001610130565b34801561019f57600080fd5b506101b36101ae366004611059565b6105f7565b005b3480156101c157600080fd5b5061018560075481565b3480156101d757600080fd5b506101856101e63660046111d9565b6106eb565b3480156101f757600080fd5b506101b361071c565b34801561020c57600080fd5b506000546040516001600160a01b039091168152602001610130565b34801561023457600080fd5b50610185610243366004611059565b60046020526000908152604090205481565b34801561026157600080fd5b50610275610270366004611203565b610730565b6040519015158152602001610130565b34801561029157600080fd5b506101236102a0366004611059565b61076a565b3480156102b157600080fd5b5061018560065481565b3480156102c757600080fd5b506101b36102d6366004611203565b6108d8565b3480156102e757600080fd5b506101b36102f6366004611225565b61098e565b34801561030757600080fd5b506101b361031636600461129a565b610b7d565b61018561032936600461129a565b610c83565b34801561033a57600080fd5b506101b36103493660046112ed565b610f67565b60408051610140810182526000808252602082018190529181018290526060808201839052608082015260a0810182905260c0810182905260e081018290526101008101829052610120810191909152600082815260046020526040902054806103f15760405162461bcd60e51b815260206004820152600f60248201526e1059d95b9d081b9bdd08199bdd5b99608a1b60448201526064015b60405180910390fd5b60008181526002602081815260409283902083516101408101855281548152600182015492810192909252918201549281019290925260038101546001600160a01b0316606083015260048101805460808401919061044f90611308565b80601f016020809104026020016040519081016040528092919081815260200182805461047b90611308565b80156104c85780601f1061049d576101008083540402835291602001916104c8565b820191906000526020600020905b8154815290600101906020018083116104ab57829003601f168201915b50505091835250506005820154602082015260068201546040820152600782015460ff16151560608201526008820154608082015260099091015460a0909101529392505050565b60026020819052600091825260409091208054600182015492820154600383015460048401805493959492936001600160a01b03909216929161055290611308565b80601f016020809104026020016040519081016040528092919081815260200182805461057e90611308565b80156105cb5780601f106105a0576101008083540402835291602001916105cb565b820191906000526020600020905b8154815290600101906020018083116105ae57829003601f168201915b50505060058401546006850154600786015460088701546009909701549596929591945060ff1692508a565b60008181526002602052604090206005015481906106495760405162461bcd60e51b815260206004820152600f60248201526e1059d95b9d081b9bdd08199bdd5b99608a1b60448201526064016103e8565b60008281526002602052604090206003015482906001600160a01b031633146106a65760405162461bcd60e51b815260206004820152600f60248201526e2737ba1030b3b2b73a1037bbb732b960891b60448201526064016103e8565b600083815260026020526040808220600701805460ff191690555184917f83fa9a5555770ebb043d9ef83dd2d496875b8a91e0b595e5ce06520ba75187ad91a2505050565b6003602052816000526040600020818154811061070757600080fd5b90600052602060002001600091509150505481565b610724610fa5565b61072e6000610fd2565b565b60008281526002602052604081206001015482148015610761575060008381526002602052604090206007015460ff165b90505b92915050565b60408051610140810182526000808252602082018190529181018290526060808201839052608082015260a0810182905260c0810182905260e08101829052610100810182905261012081019190915260008281526002602081815260409283902083516101408101855281548152600182015492810192909252918201549281019290925260038101546001600160a01b0316606083015260048101805460808401919061081890611308565b80601f016020809104026020016040519081016040528092919081815260200182805461084490611308565b80156108915780601f1061086657610100808354040283529160200191610891565b820191906000526020600020905b81548152906001019060200180831161087457829003601f168201915b50505091835250506005820154602082015260068201546040820152600782015460ff16151560608201526008820154608082015260099091015460a09091015292915050565b6108e0610fa5565b600082815260026020526040812090821315610915578181600801600082825461090a9190611358565b9091555061094b9050565b60006109208361136b565b905080826008015411610934576000610944565b8082600801546109449190611387565b6008830155505b827f643d988938d60eb0f25f427e235470754905356536009cff1faf041b0e510b2e826008015460405161098191815260200190565b60405180910390a2505050565b60008381526002602052604090206005015483906109e05760405162461bcd60e51b815260206004820152600f60248201526e1059d95b9d081b9bdd08199bdd5b99608a1b60448201526064016103e8565b60008481526002602052604090206003015484906001600160a01b03163314610a3d5760405162461bcd60e51b815260206004820152600f60248201526e2737ba1030b3b2b73a1037bbb732b960891b60448201526064016103e8565b60008581526002602052604090206007546006820154610a5d9190611358565b421015610aac5760405162461bcd60e51b815260206004820152601460248201527f436f6f6c646f776e206e6f7420656c617073656400000000000000000000000060448201526064016103e8565b60008581526004602052604090205415610b085760405162461bcd60e51b815260206004820152601060248201527f4b657920616c726561647920757365640000000000000000000000000000000060448201526064016103e8565b6001810180546000908152600460209081526040808320839055928890556002840187905542600685015587825290829020889055815187815290810186905287917f531acafb9799e0491a86c43f2c281c51a85ad02334b3fa735342c80e3de2bc51910160405180910390a2505050505050565b610b85610fa5565b610b8d61102f565b60008481526002602052604090206009810154841115610be45760405162461bcd60e51b8152602060048201526012602482015271496e73756666696369656e74207374616b6560701b60448201526064016103e8565b83816009016000828254610bf89190611387565b9091555050600080546040516001600160a01b039091169186156108fc02918791818181858888f19350505050158015610c36573d6000803e3d6000fd5b50847fc33e3ac2951b76a7a51f6d32891b0e46ada806f05331c8bfdedd1d1e8ed2a297858585604051610c6b9392919061139a565b60405180910390a250610c7d60018055565b50505050565b6000610c8d61102f565b600554341015610cd45760405162461bcd60e51b8152602060048201526012602482015271496e73756666696369656e74207374616b6560701b60448201526064016103e8565b60008581526004602052604090205415610d305760405162461bcd60e51b815260206004820152601660248201527f4b657920616c726561647920726567697374657265640000000000000000000060448201526064016103e8565b60003360405160609190911b6bffffffffffffffffffffffff1916602082015260348101879052426054820152607401604051602081830303815290604052805190602001209050604051806101400160405280828152602001878152602001868152602001610d9d3390565b6001600160a01b0316815260200185858080601f016020809104026020016040519081016040528093929190818152602001838380828437600092018290525093855250504260208085018290526040808601929092526001606080870182905260646080808901919091523460a090980197909752888652600280845295849020885181559288015191830191909155918601519381019390935584015160038301805473ffffffffffffffffffffffffffffffffffffffff19166001600160a01b0390921691909117905550908201516004820190610e7e9082611435565b5060a0820151600582015560c082015160068083019190915560e083015160078301805460ff19169115159190911790556101008301516008830155610120909201516009909101553360009081526003602090815260408083208054600181018255908452828420018590558983526004909152812083905581549190610f05836114f5565b9190505550610f113390565b6001600160a01b0316817fbae2a6d4f6ac05ea69216dd8ce08966fa0bcf51380f2320acc4b4152710a715988604051610f4c91815260200190565b60405180910390a39050610f5f60018055565b949350505050565b610f6f610fa5565b6001600160a01b038116610f9957604051631e4fbdf760e01b8152600060048201526024016103e8565b610fa281610fd2565b50565b6000546001600160a01b0316331461072e5760405163118cdaa760e01b81523360048201526024016103e8565b600080546001600160a01b0383811673ffffffffffffffffffffffffffffffffffffffff19831681178455604051919092169283917f8be0079c531659141344cd1fd0a4f28419497f9722a3daafe3b4186f6b6457e09190a35050565b60026001540361105257604051633ee5aeb560e01b815260040160405180910390fd5b6002600155565b60006020828403121561106b57600080fd5b5035919050565b6000815180845260005b818110156110985760208185018101518683018201520161107c565b506000602082860101526020601f19601f83011685010191505092915050565b60208152815160208201526020820151604082015260408201516060820152600060608301516110f360808401826001600160a01b03169052565b5060808301516101408060a0850152611110610160850183611072565b915060a085015160c085015260c085015160e085015260e085015161010061113b8187018315159052565b860151610120868101919091529095015193019290925250919050565b60006101408c83528b60208401528a60408401526001600160a01b038a16606084015280608084015261118d8184018a611072565b60a0840198909852505060c081019490945291151560e08401526101008301526101209091015295945050505050565b80356001600160a01b03811681146111d457600080fd5b919050565b600080604083850312156111ec57600080fd5b6111f5836111bd565b946020939093013593505050565b6000806040838503121561121657600080fd5b50508035926020909101359150565b60008060006060848603121561123a57600080fd5b505081359360208301359350604090920135919050565b60008083601f84011261126357600080fd5b50813567ffffffffffffffff81111561127b57600080fd5b60208301915083602082850101111561129357600080fd5b9250929050565b600080600080606085870312156112b057600080fd5b8435935060208501359250604085013567ffffffffffffffff8111156112d557600080fd5b6112e187828801611251565b95989497509550505050565b6000602082840312156112ff57600080fd5b610761826111bd565b600181811c9082168061131c57607f821691505b60208210810361133c57634e487b7160e01b600052602260045260246000fd5b50919050565b634e487b7160e01b600052601160045260246000fd5b8082018082111561076457610764611342565b6000600160ff1b820161138057611380611342565b5060000390565b8181038181111561076457610764611342565b83815260406020820152816040820152818360608301376000818301606090810191909152601f909201601f1916010192915050565b634e487b7160e01b600052604160045260246000fd5b601f82111561143057600081815260208120601f850160051c8101602086101561140d5750805b601f850160051c820191505b8181101561142c57828155600101611419565b5050505b505050565b815167ffffffffffffffff81111561144f5761144f6113d0565b6114638161145d8454611308565b846113e6565b602080601f83116001811461149857600084156114805750858301515b600019600386901b1c1916600185901b17855561142c565b600085815260208120601f198616915b828110156114c7578886015182559484019460019091019084016114a8565b50858210156114e55787850151600019600388901b60f8161c191681555b5050505050600190811b01905550565b60006001820161150757611507611342565b506001019056fea2646970667358221220d301effbf12c3d1e9aa5315669f9b1782ff68eca09c26501a86c95052697526964736f6c63430008140033",
  "linkReferences": {},
  "deployedLinkReferences": {}
}